:100000000C947B000C94A3000C94A3000C94EE0FB2
:100010000C94C10F0C94940F0C94A3000C94B7098A
:100020000C94A3000C94A3000C94A3000C942B1527
:100030000C94A3000C94A3000C94A3000C94A300B4
:100040000C9442090C94A3000C94B1110C94130A63
:100050000C94A3000C94A3000C94A3000C94A30094
:100060000C947D130C94A300BC0EE10EAA0EF40EAA
:10007000130F5D0F3B0F5D0F550F5D0F880FCB0EFC
:100080004E0F470F0E1314131E132C132E1334137D
:100090003E134C135E13601302000000002400277F
:1000A000002A0000000000250028002B00000000AE
:1000B0000800020100000304070000000000000027
:1000C00000010204081020408001020408102001F1
:1000D00002040810200404040404040404020202BC
:1000E00002020203030303030300000000230026AF
:1000F00000290000A51D11241FBECFEFD8E0DEBFF0
:10010000CDBF13E0A0E0B1E0E4E4F3E402C0059069
:100110000D92A234B107D9F726E0A2E4B3E001C002
:100120001D92A83AB207E1F710E0CBE7D0E004C097
:100130002197FE010E94881FCA37D107C9F70E9484
:1001400001190C94A0210C9400004F925F926F92C1
:100150007F928F929F92AF92BF92CF92DF92EF9257
:10016000FF920F931F93CF93DF93CDB7DEB7C454A5
:10017000D1090FB6F894DEBF0FBECDBF062F7A01AE
:100180008D3609F467C2B8F4803609F4B8C240F479
:10019000803509F4A7C18F3509F457C30C94F408CE
:1001A000893609F49AC28B3609F403C2823611F0FB
:1001B0000C94F408FCC4823709F491C540F48F36DE
:1001C00009F4D4C1803709F444C10C94F408883789
:1001D00009F4E9C08A3709F4A8C1863711F00C94F4
:1001E000F408DA0111962C91922F987125FF03C023
:1001F0008AE391E03FC7FA01808126FB222720F99C
:1002000031E02327983081F170F491110C94F408B7
:1002100091E09093C8048093EA041092C90410926C
:10022000EB0412E007C09031D9F1983109F46EC0A7
:100230000C94F408101778F4F701E10FF11D6181B7
:100240006795662767958081680F81E396E00E9435
:1002500016111E5FEFCF81E00E948B1783E191E0C2
:100260000197F1F70C94F40843816281063071F430
:1002700070E0B0E84B9F600D711D1124F7014581BE
:100280004795442747959481490F06C047954427D1
:100290004795460F6FEF7FEF0E94FC0C0C94F4081B
:1002A000E0910101E7301CF08AE591E0E3C6DA0154
:1002B00013969C91139712963C91663091F4632F9C
:1002C00070E0B0E89B9F600D711D1124DA01159656
:1002D0009C91159797959927979514964C91940F03
:1002E00006C0979599279795930F6FEF7FEFEF5F74
:1002F000E0930101B5E0EB02F0011124E159FC4F5C
:10030000808372836183938324836EC7209101016C
:1003100012163CF490E0622F022E000C770B35E0B1
:100320000FC08FEF809301015FC7349FF001359FAD
:10033000F00D1124E159FC4F4081841739F09F5F83
:10034000492F50E06417750784F790E085E022C0DC
:100350009830F8F4FA0131968E9FD0018F9FB00D3E
:100360001124A159BC4F3C91849FF001859FF00D51
:100370001124E159FC4F308311964D915C911297F5
:100380005283418313963C911397338314963C9187
:1003900034839F5F492F50E064177507CCF62150D6
:1003A0002093010121C7FA012181808190E0F0E8CA
:1003B0002F9F800D911D1124009721F090934303EE
:1003C000809342038091310481110EC710E08EEEBC
:1003D000810F823028F466E070E0812F0E941C0EAD
:1003E0001F5F1431A1F781E080933104109254040F
:1003F000109253041092C9041092EB041092C70497
:100400008093C6041092A10461E082E10E94021868
:1004100061E083E10E9402188091B9008E7F809391
:10042000B9008091B9008D7F8093B90088E48093F2
:10043000B80085E48093BC008BEB90E19093560468
:10044000809355048CEB90E190935804809357046B
:10045000CBC6653008F4C8C6DA011C918EEF810F57
:10046000823108F0C1C611960C9111971296CC906A
:1004700012971396DC9013971496FC90E12FF0E0FE
:10048000E65EFB4F80818C30B0F490E0FC01EE0F13
:10049000FF1F8E0F9F1FFC01EE59F94F808190E0E6
:1004A000FC01EE0FFF1F8E0F9F1FFC01E35CF94F55
:1004B000808186FDE2C54D2D50E0B0E8FB9E400DE9
:1004C000511D1124602F70E0E0E8CE9E600D711D7B
:1004D0001124812F0E94DE0D64E070E0812F0E94C4
:1004E0001C0E82C6DA0111962C9111978C9190E026
:1004F000B0E82B9F800D911D112490936C03809385
:100500006B032FB7F8948091AF039091B003A09143
:10051000B103B091B2032FBF809367039093680338
:10052000A0936903B0936A035FC6623008F45CC6A7
:10053000FA012181808190E0F0E82F9F800D911DCC
:100540001124009711F481E090E0909303018093CF
:100550000201609102017091030188E290E00E9423
:10056000601F7093AE036093AD033EC6623008F423
:100570003BC6DA0111966C91119770E00230A1F040
:1005800012968C91B0E88B9FC0011124682B792BB7
:10059000033051F0FA01838190E090E4899F902D1F
:1005A00088271124682B792BD7018C910E94540B3A
:1005B0001BC680EF0E947E178CE60E947E171EEFFE
:1005C00084EF810F863038F482E00E947E178AE043
:1005D0000E947E1709C0113039F483E00E947E1713
:1005E00088E00E947E1708C08DEF810F8230A8F34B
:1005F00089EF810F833088F3123130F484E00E9458
:100600007E178EE00E947E1780EF810F823030F4DB
:1006100086E00E947E1781E00E947E178FE70E948D
:100620007E171F5F123109F41CC5123148F680E0B5
:100630000E947E1781E00E947E178BE00E947E1749
:1006400081E00E947E1781E00E947E1781E00E9477
:100650007E17B6CF662309F4C7C5FA01008180EF83
:100660000E947E178EE60E947E17802F0E947E17C2
:10067000043108F0F6C410E0F801EE51FA4F808121
:100680000E947E17000F111F98012A503A4F7901DE
:10069000D9018C918F770E947E17F701808191811B
:1006A0009C012078232B39F0880F892F881F990B04
:1006B0008F770E947E17F801EA50FA4F808191816E
:1006C0009C012227307C232B09F4CBC4990F880B83
:1006D000990F982F881F8F77C2C480EF0E947E17D2
:1006E0008AE60E947E1712EF163010F4812F01C0A7
:1006F0008FE70E947E171F5F1630B1F7B2C4DA0190
:100700008C9180936D039091500391119AC0119632
:100710009C912EE031E03093ED042093EC0421E62F
:100720002093F7048093F0049093F204891709F45E
:1007300085C0883018F4983008F080C028EF280F62
:10074000263020F49850963060F078C08E3030F02B
:100750009E3008F473C0843108F070C0943108F002
:100760006DC01092F4041092F504E0916503F091CD
:100770006603309739F42CEE34E03093660320930F
:1007800065030BC0248535852115310511F0F9016C
:10079000F9CF2CEE34E0358724871092F9041092BB
:1007A000F80490E0FC01EB52FF4FE491F0E0EE0F13
:1007B000FF1FE751FF4F259134913093EF042093B1
:1007C000EE04232B09F43AC0FC01EF53FF4FE491F0
:1007D000E093F104FC01E355FF4F849181110E94E5
:1007E00074128091F20490E0FC01EF53FF4FE4910A
:1007F000E093F304FC01E355FF4F849181110E94C3
:10080000741260E08091F0040E944F1860E08091C3
:10081000F2040E944F1861E08091F0040E940218D7
:1008200061E08091F2040E9402181091F20480911C
:10083000F0040E94AD16812F0E94AD1681E08093D6
:10084000500381E080936E03CFC4FA0190818181CF
:100850009111A7C193818280912CF0E89F9F800C19
:10086000911C1124DA0115969C9115971496AC9061
:10087000B12CB0E89B9FA00CB11C112490910001F9
:10088000891721F09F3F09F0AFC404C0E8E9F0E008
:10089000149179C080930001E8E9F0E014911F3FC2
:1008A00009F4A2C4113009F448C050F1123009F023
:1008B0006AC01092B0001092B1009091B0009260A6
:1008C0009093B0009091B10091609093B100282F67
:1008D00030E0F901EB52FF4FE491F0E0EE0FFF1F23
:1008E000ED55FF4F45915491509359034093580350
:1008F000F901EF53FF4FE491E0935A0312E070C403
:1009000014BC15BC94B5926094BD95B5916095BD2D
:10091000282F30E0F901EB52FF4FE491F0E0EE0FA9
:10092000FF1FED55FF4F45915491F901EF53FF4FD4
:10093000E491E093450310E053C4109280001092BC
:100940008100909181009860909381009091810046
:10095000916090938100282F30E0F901EB52FF4F16
:10096000E491F0E0EE0FFF1FED55FF4F45915491DC
:10097000F901EF53FF4FE491E093440361E00E94DB
:100980004F1811E089C017FD2FC461E00E944F1875
:10099000812F8D7F09F080C02401092C000C66088E
:1009A000770860E072E18AE790E0A30192010E947B
:1009B000BA1E25962CAF3DAF4EAF5FAF25976901AC
:1009C0007A01E1E0CE1AD108E108F108FFEFCF1675
:1009D000D104E104F10409F008F44CC060E472E4CD
:1009E0008FE090E0A30192010E94BA1E69017A0192
:1009F00081E0C81AD108E108F108123009F59FEF2B
:100A0000C916D104E104F10409F008F4AEC360E9A9
:100A100070ED83E090E0A30192010E94BA1E69018B
:100A20007A01A1E0CA1AD108E108F108BFEFCB169C
:100A3000D104E104F10411F008F023C383E025C0E0
:100A4000EFEFCE16D104E104F104B1F0A8F068E4B0
:100A500078EE81E090E0A30192010E94BA1E690144
:100A60007A01F1E0CF1AD108E108F108112309F465
:100A700080C346C381E001C082E0111106C095B574
:100A8000987F892B85BD43C085E09091B100987F08
:100A9000892B8093B1003BC02401092C000C66080F
:100AA000770860E072E18AE790E0A30192010E947A
:100AB000BA1E69017A01B1E0CB1AD108E108F10848
:100AC000C114D104E1E0EE06F10488F068E478EEA8
:100AD00081E090E0A30192010E94BA1E69017A01AF
:100AE000F1E0CF1AD108E108F10883E001C081E00C
:100AF000113069F490918100987F892B8093810057
:100B0000A114B10439F42FEF3FEFA90128C0A114BB
:100B1000B10469F09401220F331FD5010E948E1F8A
:100B200028EE33E040E050E00E94231F03C02FEF87
:100B30003FEFA901113099F0123019F1111154C38E
:100B4000C7BC20934A0330934B0340934C0350930C
:100B50004D0380916E00826080936E0045C3D092F9
:100B60008900C09288002093460330934703409346
:100B700048035093490380916F00826080936F0017
:100B800033C3C092B30020935B0330935C03409364
:100B90005D0350935E0380917000826080937000CB
:100BA00023C3913009F020C30E948C091DC32091FA
:100BB000AB033091AC03263031050CF08DC0DA0167
:100BC0008C9180934F0311969C91119790934E03B3
:100BD00014969C9114971396EC90F12CB0E89B9F7F
:100BE000E00CF11C1124F901E756FC4F80836CE006
:100BF00070E00E941C0E6CE070E080914E030E9439
:100C00001C0E82E190E00E94951FDC0140914E0392
:100C100020914F0330E0F901EF53FF4FE491149618
:100C2000EC93149750E0FA01EF53FF4FE4911596BF
:100C3000EC9315972B523F4FF9018491E82FF0E088
:100C4000EE0FFF1FED55FF4F8591949117969C93E2
:100C50008E931697FA01EB52FF4FE491F0E0EE0FFE
:100C6000FF1FE751FF4F859194911B969C938E93A4
:100C70001A97F9012491E22FF0E0EE0FFF1FE756DB
:100C8000FF4F8591949119969C938E931897C70165
:100C9000F5EFEF16F1E0FF0614F084EF91E049E381
:100CA000489F9001499F300D1124C9014C961D9613
:100CB0009C938E931C978091AB039091AC03FC01A5
:100CC000EE0FFF1FE156FC4FB183A0830196909376
:100CD000AC038093AB0388C28BE691E0CBC1DA0111
:100CE0008C918111E0C012968C9112971196CC9044
:100CF000D12CB0E88B9FC00CD11C1124FA011381B8
:100D0000812E912CA480B12C653069F58AE190E0A8
:100D10000E94951F7C01DC011B961C921E921A9763
:100D20001D921C92FC01168A178A108E118ED78292
:100D3000C68295868486B786A68661E0812F0E944A
:100D40004F1861E0D7011E968C910E944F18F70151
:100D5000118A108A138A128A158A148A82E090E016
:100D6000918780873EC0673009F040C04580512C94
:100D70006680712C8AE190E00E94951F7C01FC0145
:100D80001386128611821082168A178A108E118E8F
:100D9000D782C68295868486B786A686518A408A7F
:100DA000738A628A61E0812F0E944F1861E0F70127
:100DB00086850E944F1861E0D70150968C910E9461
:100DC0004F1861E0F70182890E944F18D7015596AC
:100DD0001C921E92549784E090E019969C938E93F7
:100DE0001897F0921704E0921604FEC188EA91E089
:100DF0000E94A116602F70E080E090E02AE0FE01E2
:100E000031967F01AF010E94791EF7010190002009
:100E1000E9F731978F010E191F09B8016F5F7F4FF6
:100E200080E090E00E94B6206C01009731F0DC0178
:100E30001C92B7010E948A2102C000E010E0011557
:100E4000110511F419820EC00F33110510F00FE3D4
:100E500010E0A801B601C7010E949121F701E00F3F
:100E6000F11F108288ED91E00E94A116C7010E9437
:100E7000A116C601CC5BDF4F0FB6F894DEBF0FBEE4
:100E8000CDBFDF91CF911F910F91FF90EF90DF9039
:100E9000CF90BF90AF909F908F907F906F905F901A
:100EA0004F900C942D20813009F0C7C0FA012281A7
:100EB000822F90E0A0E0B0E0AC01BD01A7E0440FBC
:100EC000551F661F771FAA95D1F7838190E0A0E098
:100ED000B0E01EE0880F991FAA1FBB1F1A95D1F71B
:100EE000482B592B6A2B7B2B81814A015B01882A75
:100EF0008581048110E0F0E88F9F000D111D112401
:100F0000D7011696DC90E0901604F0901704E114D7
:100F1000F10409F48FC0F70126813781032E000CFC
:100F2000440B550B60E077E883E993E00E94BA1E1A
:100F3000CA01B901A50194010E94BA1ED7011296F7
:100F40002D933D934D935C931597D11003C011954C
:100F500001951109680117FF04C0CC24DD24C01AD3
:100F6000D10A1016110634F481E090E0F701918364
:100F7000808305C0012B19F0D7011D921C9204E05B
:100F800010E04AE0A42EB12CC114D10409F42CC104
:100F90000E94A218F70146885788608C718C9B01CB
:100FA000AC012419350946095709428053806480F1
:100FB0007580241535054605570530F3668B778B0C
:100FC000808F918F208131818285938521303105F9
:100FD00059F4019693878287268137818217930778
:100FE000A1F41386128611C0892B29F4F70186819A
:100FF000978193878287D7011A968D919C911B9731
:1010000001971B969C938E931A97B1E0CB1AD10847
:10101000F70120853185828593852530310511F4CE
:10102000B50101C0B8010E94741FBC01C7010E9434
:101030009D12AACF80EE91E01DC08230C9F480914C
:10104000160490911704892B81F080EF0E947E177F
:1010500082E70E947E1785E00E947E1780E00E9452
:101060007E1787EF0E947E17BFC08CE092E002C01F
:1010700081E492E00E94A116B7C0812F0E94AB0DBF
:101080001ACA68E478EE81E090E0A30192010E9420
:10109000BA1E69017A01F1E0CF1AD108E108F1081E
:1010A0002FEFC216D104E104F10441F138F164E2FA
:1010B00074EF80E090E0A30192010E94BA1E6901E2
:1010C0007A0181E0C81AD108E108F1089FEFC9163A
:1010D000D104E104F10409F008F4D6CC62E17AE726
:1010E00080E090E0A30192010E94BA1E69017A019A
:1010F000A1E0CA1AD108E108F10818C084E0C5CC03
:101100009FEFC916D104E104F10489F180F162E195
:101110007AE780E090E0A30192010E94BA1E690183
:101120007A0181E0C81AD108E108F1084FEFC4162E
:10113000D104E104F104B9F0B0F025968CAD9DAD79
:10114000AEADBFAD25973AE0B595A7959795879534
:101150003A95D1F76C017D0131E0C31AD108E1085D
:10116000F10887E092CC86E090CC82E08ECC84E0DF
:1011700084CCEFEFCE16D104E104F10479F170F1E3
:1011800062E17AE780E090E0A30192010E94BA1E3A
:1011900069017A01A1E0CA1AD108E108F108BFEF9C
:1011A000CB16D104E104F104B9F0B0F025968CAD72
:1011B0009DADAEADBFAD25972AE0B595A7959795A6
:1011C00087952A95D1F76C017D0151E0C51AD108A8
:1011D000E108F10885E053CC84E051CC83E04FCCAA
:1011E00061E00E944F18D8CBCC5BDF4F0FB6F8946C
:1011F000DEBF0FBECDBFDF91CF911F910F91FF904A
:10120000EF90DF90CF90BF90AF909F908F907F90A6
:101210006F905F904F900895CF92DF92EF92FF9280
:101220000F931F93CF93DF936C017A018B01C0E082
:10123000D0E0CE15DF0581F0D8016D918D01D6018A
:10124000ED91FC910190F081E02DC6010995892B6B
:1012500011F02196EECF7E01C701DF91CF911F9152
:101260000F91FF90EF90DF90CF9008950E947C2126
:101270008AEF94E00E944C1021E0892B09F420E0D1
:10128000822F08951F920F920FB60F9211242F9361
:101290003F938F939F93AF93BF938091AF039091B0
:1012A000B003A091B103B091B2033091C40323E025
:1012B000230F2D3720F40196A11DB11D05C026E88E
:1012C000230F0296A11DB11D2093C4038093AF0389
:1012D0009093B003A093B103B093B20380919D04A7
:1012E00090919E04A0919F04B091A0040196A11D2D
:1012F000B11D80939D0490939E04A0939F04B0938E
:10130000A004BF91AF919F918F913F912F910F902A
:101310000FBE0F901F90189590910001891324C063
:10132000E8E9F0E0E4919FEF90930001E130B9F03B
:1013300098F0E230C9F4909170009D7F9093700016
:1013400091E09093B0009091B100987F9460909359
:10135000B1001092B30008C010926E0005C09091C9
:101360006F009D7F90936F0060E00C9402181F92B5
:101370000F920FB60F9211242F933F934F935F93C9
:101380006F937F938F939F93AF93BF93EF93FF934D
:1013900080915B0390915C03A0915D03B0915E032B
:1013A000892B8A2B8B2B51F190915A03E091580392
:1013B000F091590380818927808380915B0390910C
:1013C0005C03A0915D03B0915E03181619061A061E
:1013D0001B06C4F480915B0390915C03A0915D03B4
:1013E000B0915E030197A109B10980935B039093CB
:1013F0005C03A0935D03B0935E0304C08091000181
:101400000E948C09FF91EF91BF91AF919F918F91B5
:101410007F916F915F914F913F912F910F900FBEF0
:101420000F901F9018951F920F920FB60F921124D4
:101430002F933F934F935F936F937F938F939F93DC
:10144000AF93BF93EF93FF938AEF94E00E94E31171
:10145000FF91EF91BF91AF919F918F917F916F918C
:101460005F914F913F912F910F900FBE0F901F9062
:101470001895FF920F931F93CF93DF93EC018F8109
:101480002091C9039D813E81F22EF094F322922394
:10149000F92A8227F8222F8308851985011511055D
:1014A000D9F0D80113969C918F2D892389F08091D2
:1014B000C903892391E009F490E0F80194838081C5
:1014C0009181DC01ED91FC910190F081E02D099575
:1014D000F80105811681E2CF9BB38C81892349F005
:1014E0009BB3892B8BBBE881F98180818093C903F1
:1014F000C6CFDF91CF911F910F91FF900895CF93A9
:10150000863080F5409197035091980321E030E0B8
:10151000672B81F4B90102C0660F771F8A95E2F745
:10152000CB01809590958423952390939803809385
:10153000970318C0082E02C0220F331F0A94E2F747
:10154000242B352B309398032093970390913204EA
:10155000911108C0C82F0E948B18BC018C2FCF910D
:101560000C945E16CF9108958F929F92AF92BF9286
:10157000CF92DF92EF92FF920F931F93CF93DF935F
:10158000833008F084C0982F990F990F990F58E075
:10159000952E990E94E1991510F444E1942E8B0147
:1015A000D82FC82ECC0CCC0CCC0CC0E08824839453
:1015B0005B01BB24C91430F58EEF8C0D8231F8F439
:1015C0004C2D50E0FA01EE51FA4F20812230B8F450
:1015D000882D90E08A219B21DD24D394009709F483
:1015E000D12C7A01EE0CFF1C213009F040C0C82933
:1015F000F701EA50FA4F8D2D90E091838083880C9B
:10160000C394D8CFD11108C0F8946BB106270C7FD2
:10161000C023C627CBB929C0D130D1F40C23F8940C
:1016200095B18C2F8F7380958923902F9F73892B71
:1016300085B998B1C295C695C695C370C0958C2FD3
:1016400089230295069506950370C02FC82B0CC000
:10165000CF70F89488B16C2F660F660F6095682381
:10166000C023CC0FCC0FC62BC8B9789410C0892BDF
:1016700009F4BECFF701EA50FA4F808191810197BA
:1016800009F4B6CF62E08C2D0E944F18B1CFDF91E4
:10169000CF911F910F91FF90EF90DF90CF90BF906F
:1016A000AF909F908F9008958F929F92AF92BF922C
:1016B000CF92DF92EF92FF920F931F93CF93DF931E
:1016C000EB01843108F00AC1082F10E0F801EE5157
:1016D000FA4F9081933009F496C0943009F0FEC01F
:1016E0008250823108F087C0F801E65EFB4FE0804F
:1016F000F12C6701CC0CDD1C603282E078070CF025
:1017000042C077FD05C0653B710524F4DB0104C0D0
:10171000A0E001C0A4EBB0E0F601EE0DFF1DEE5914
:10172000F94F818128E830E04901881A910887FD46
:101730009394880C991C880C991C092C000CAA08FD
:10174000BB08828128E532E0281B310987FD3395EB
:10175000220F331F220F331FA901330F660B770BA4
:101760009A01AB01281939094A095B090E94E41E54
:1017700024EB30E040E050E00E94BA1E820E931E3F
:10178000A41EB51E01C04B01F601EE0DFF1DEE5962
:10179000F94F20812C3078F5318188E890E0831B67
:1017A000910937FD9395880F991F880F991F881607
:1017B000990684F0828148E552E0481B510987FD73
:1017C0005395440F551F440F551FC4014815590523
:1017D0000CF4CA010297880F991F4FB7F89430E0B4
:1017E000F901EE0FFF1F2E0F3F1FF901E35CF94FC8
:1017F000928381834FBF000F111FF801EA50FA4F07
:10180000D183C0836BC07B01D82F833049F08BEF2D
:10181000800F823028F087EF800F833008F057C0A8
:1018200061E08D2F0E944F18E114F10411F460E083
:1018300005C08FEFE816F10429F461E08D2F0E94B6
:10184000021845C0F801E355FF4FE491E330F9F089
:1018500048F4E130B9F0E230A1F584B5806284BD8E
:10186000E8BC35C0E730E9F0E83019F1E43049F57B
:1018700080918000806280938000F0928B00E092E3
:101880008A0025C084B5806884BDE7BC20C08091F3
:101890008000806880938000F0928900E092880048
:1018A00016C08091B00080688093B000E092B300D1
:1018B0000EC08091B00080628093B000E092B400CE
:1018C00006C080E8E816F1040CF0B7CFB0CF000FE7
:1018D000111FF801EA50FA4FF182E082DF91CF91B7
:1018E0001F910F91FF90EF90DF90CF90BF90AF903E
:1018F0009F908F9008959EEF980F923180F4E82F7B
:10190000F0E0DF01AE51BA4F9C91913041F4EE0FFF
:10191000FF1FEA50FA4F608371830C9402180895F8
:101920000F931F93CF93082F10E0F801E15AFC4F5B
:101930009081C62FC923025D1B4F411104C0D801FD
:101940009C91C91771F1682F809197059091980526
:101950006F706069DC01ED91FC910190F081E02DE8
:10196000099580919705909198056C2F6F77DC0110
:10197000ED91FC910190F081E02D09958091970502
:10198000909198056C2F70E0660F672F661F770B9C
:10199000DC01ED91FC910190F081E02D0995F801B9
:1019A000C083CF911F910F910895833020F5282F88
:1019B00030E0F901EE59FC4F6083672BE1F0F9014B
:1019C000E15AFC4F9081811103C069B16C7F0FC057
:1019D000813049F463B136B16F7340E4349F9001B4
:1019E0001124622B04C066B16C73669566956923F9
:1019F00041E00C94900C0895EF92FF920F931F9387
:101A0000CF93DF93082FEB01142FF22E6F3F8FEF50
:101A10007807F9F081E08093C8040093EA041092FB
:101A2000C9041092EB0481E396E00E9416118F2DF9
:101A30000E948B178091420390914303823091055D
:101A400050F0880F991F880F991F05970197F1F79C
:101A500002C0C0E0D0E08091C7048111FCCF912F7B
:101A6000113208F090E281E08093C7048093C604AD
:101A70002FEF2093C5041092C404290F2093C304B0
:101A80008093A2048091A204202F220F822B8093A6
:101A9000A2048091A104813061F41092A10480918C
:101AA000A2048093BB008091BC0083FDF8CF85EC3D
:101AB00001C085EE8093BC008091C7048130E1F3C2
:101AC0008091C404891710F49091C404E3EAF4E00F
:101AD000A3E3B4E080E0891721F021912D938F5F7B
:101AE000FACF1092540480935304E12EF12C90E02D
:101AF000E816F9061CF483EE92E005C08E159F05EA
:101B000024F480E093E00E94A1160093D603C093D2
:101B1000D703C6EDD3E0CE01865D93408E159F05B9
:101B20006CF421969091530480915404981731F0ED
:101B300081E396E00E94CD108983EDCF62E0610FD2
:101B400046ED53E087E7DF91CF911F910F91FF9012
:101B5000EF900C947516A82FB0E0A65EBB4F9C9139
:101B6000292F30E0F901EE0FFF1F2E0F3F1FF90163
:101B7000EE59F94FE081F0E09F01220F331FE20F91
:101B8000F31FE35CF94F80818F7B80838091180481
:101B9000981306C0992379F09150909318040BC0C4
:101BA000882349F0E0911904EF5FE0931904F0E015
:101BB000E753FC4F90838FEF8C930895DB01909156
:101BC00018049C30A8F530911904682F70E0332375
:101BD00069F0E32FF0E0E753FC4F8081FB01E65E04
:101BE000FB4F808331503093190407C0FB01E65E40
:101BF000FB4F90839F5F90931804FB01E65EFB4FC1
:101C0000808190E09C01220F331F820F931F1A16D0
:101C10001B0634F4141615061CF49A01AD0104C019
:101C200020E639E040E252E08E59994F0C94AB1413
:101C30008CE193E00C94A1168F929F92BF92CF9269
:101C4000DF92EF92FF920F931F93CF93DF93C82EF3
:101C5000D12CE601C956DA4FFE01E55BFF4F9081BA
:101C60009F3709F455C1963041F49091310499237E
:101C700021F06630710509F02FC17B01182F0EEF9E
:101C8000080F0231F8F464307105E1F0F601E65E08
:101C9000FB4F80818C30B0F490E0FC01EE0FFF1F11
:101CA0008E0F9F1FFC01EE59F94F808190E0FC01DF
:101CB000EE0FFF1F8E0F9F1FFC01E35CF94F808129
:101CC00086FD10C152EFB52EB10E85E08B1558F090
:101CD00061E070E082E0E816F10411F060E070E08D
:101CE0008B2D0E947F0A023118F5E12FE695E695CB
:101CF000E695212F2770F0E0E15AFC4FE114F10442
:101D000021F08BE0E816F10449F481E090E001C095
:101D1000880F2A95EAF79081892B09C081E090E02D
:101D200001C0880F2A95EAF78095908189238083E6
:101D30004601880C991CF401EA50FA4F1182108276
:101D40008EE0E816F10408F0B8C0F701EC5CFF4F34
:101D50000C94881F85E08B1508F4DAC0023120F45A
:101D600060E0812F0E944F18C55BDF4F88818F375D
:101D700009F4CEC082E09FC0023108F0C9C060E023
:101D8000812F0E944F18C55BDF4F88818F3709F480
:101D9000BFC01882BDC0023108F0BAC062E0812F16
:101DA0000E944F18C55BDF4F88818F3711F08BE0A1
:101DB0008883F401EA50FA4F81E090E091838083B8
:101DC000A7C0023108F0A4C060E0812F0E94021871
:101DD00061E0812F0E944F18C55BDF4F88818F37EC
:101DE00009F496C081E067C0133049F08BEF810F92
:101DF000823028F087EF810F833008F089C061E0DE
:101E0000812F0E944F1861E0812F0E944F1860E0DF
:101E1000812F0E940218C55BDF4F88818F3709F43C
:101E200077C083E048C0023108F072C0C55BDF4F65
:101E300088818F3711F084E08883F601E65EFB4FDE
:101E400080818F3F09F452C090E0FC01EE0FFF1F2C
:101E50008E0F9F1FFC01EE59F94F808190E0FC012D
:101E6000EE0FFF1F8E0F9F1FFC01E35CF94F808177
:101E700086FD4EC03BC01251123008F049C0C55B10
:101E8000DF4F88818F3709F443C086E014C0C55BFB
:101E9000DF4F88818F37E1F18DE00DC0C55BDF4FEB
:101EA00088818F37A9F18CE006C0C55BDF4F888140
:101EB0008F3771F188E088832BC080E393E0DF9156
:101EC000CF911F910F91FF90EF90DF90CF90BF9037
:101ED0009F908F900C94A116109231049FEF9093D5
:101EE0000101CBCE812F0E94AB0DECCE4FEF5FEF07
:101EF0006FEF7FEF812FDF91CF911F910F91FF90B7
:101F0000EF90DF90CF90BF909F908F900C94DE0D5C
:101F1000DF91CF911F910F91FF90EF90DF90CF90C5
:101F2000BF909F908F9008951F920F920FB60F92BF
:101F300011242F933F934F935F936F937F938F93CE
:101F40009F93AF93BF93EF93FF93E0918606F09139
:101F5000870680818093C90386E896E00E94390A4B
:101F6000FF91EF91BF91AF919F918F917F916F9171
:101F70005F914F913F912F910F900FBE0F901F9047
:101F800018951F920F920FB60F9211242F933F9323
:101F90004F935F936F937F938F939F93AF93BF9371
:101FA000EF93FF93E0919006F091910680818093EA
:101FB000C90380E996E00E94390AFF91EF91BF9131
:101FC000AF919F918F917F916F915F914F913F91D1
:101FD0002F910F900FBE0F901F9018951F920F9288
:101FE0000FB60F9211242F933F934F935F936F93EC
:101FF0007F938F939F93AF93BF93EF93FF93E09162
:102000009A06F0919B0680818093C9038AE996E045
:102010000E94390AFF91EF91BF91AF919F918F91EB
:102020007F916F915F914F913F912F910F900FBED4
:102030000F901F901895FC01538D448D252F30E093
:10204000842F90E0821B930B541710F0CF960895C5
:1020500001970895FC01918D828D981761F0828D12
:10206000DF01A80FB11D5D968C91928D9F5F9F73CC
:10207000928F90E008958FEF9FEF0895FC01918D6E
:10208000828D981731F0828DE80FF11D858D90E0DB
:1020900008958FEF9FEF0895FC01918D228D892F78
:1020A00090E0805C9F4F821B91098F739927089560
:1020B00080E090E0892B29F00E94380981110C946E
:1020C00000000895FC01A281B3812C919581922397
:1020D00087818223992361F0882379F08085882382
:1020E00021F091858285890F818710861286089557
:1020F000811103C081E0808708952085211108C0E7
:10210000992311F081E003C0882311F08FEF8287BB
:10211000089585ED8093BC008091BC0084FDFCCFC8
:102120001092C704089540917A04262F30E0240FBE
:10213000311D21323105DCF42091C7042430C9F46B
:10214000FC0180E090E0861758F430917A042191E8
:10215000DC01A65ABB4FA30FB11D2C930196F3CF00
:1021600080917A04680F60937A0480E0089581E09A
:10217000089582E00895089508950895E091540423
:1021800080915304E81730F4F0E0ED5CFB4F808160
:1021900090E008958FEF9FEF0895909154048091FF
:1021A0005304981750F4E92FF0E0ED5CFB4F2081C9
:1021B00030E09F5F9093540402C02FEF3FEFC901BE
:1021C00008958091530490E020915404821B91095A
:1021D0000895CF92DF92EF92FF920F931F93CF93C8
:1021E000DF937C01CB018A012091C804222389F06E
:1021F000EB016B01C40ED51ECC15DD0569F06991AC
:10220000D701ED91FC910190F081E02DC701099576
:10221000F3CF642F0E949310C801DF91CF911F91DB
:102220000F91FF90EF90DF90CF900895CF93DF93C1
:102230001F92CDB7DEB769832091C8042223D1F065
:102240002091EB04203240F021E030E0FC013383A8
:10225000228380E090E015C08091C904E82FF0E06F
:10226000E653FB4F998190838F5F8093C9048093DD
:10227000EB0405C061E0CE0101960E94931081E05D
:1022800090E00F90DF91CF910895089580E090E065
:1022900008950F931F93CF93DF9381E080933204CF
:1022A00080913104882329F0109231048FEF8093BC
:1022B00001011092620310925F0310922E0410929B
:1022C00063031092600310922F0410926403109223
:1022D0006103109230040AE114E0C0E0DFEF82EF06
:1022E0008C0F863018F462E070E00AC08EEF8C0F1D
:1022F000823120F48C2F0E948C0905C061E070E0CF
:102300008C2F0E941C0EF801D1938F01CF5FC43136
:1023100031F71092AC031092AB03A9E9B3E0EFE9F7
:10232000F3E08FE78D9320813181232B11F011820F
:102330001082329693E0EB3AF907A1F710929803D6
:102340001092970310921904109218041092170417
:102350001092160410923204DF91CF911F910F91C9
:1023600008951F920F920FB60F9211242F938F93FF
:102370009F93EF93FF93E0910A05F0910B05808105
:10238000E0911005F091110582FD12C090818091BD
:1023900013058F5F8F7320911405821751F0E09120
:1023A0001305F0E0E650FB4F958F8093130501C0B5
:1023B0008081FF91EF919F918F912F910F900FBE90
:1023C0000F901F901895FC01848DDF01A80FB11D9F
:1023D000A35ABF4F2C91848D90E001968F7399275B
:1023E000848FA689B7892C93A089B1898C91837039
:1023F00080648C93938D848D981306C00288F38932
:10240000E02D80818F7D80830895EF92FF920F935E
:102410001F93CF93DF93EC0181E0888F9B8D8C8D90
:10242000981305C0E889F989808185FD26C0F62EBC
:102430000B8D10E00F5F1F4F0F731127E02E8C8D57
:10244000E8120CC00FB607FCFACFE889F989808141
:1024500085FFF5CFCE010E94E311F1CF8B8DFE01F8
:10246000E80FF11DE35AFF4FF0829FB7F8940B8FEE
:10247000EA89FB89808180620AC09FB7F894EE895F
:10248000FF896083E889F989808183708064808313
:102490009FBF81E090E0DF91CF911F910F91FF905E
:1024A000EF900895CF93DF93EC01888D8823C9F0D6
:1024B000EA89FB89808185FD05C0A889B9898C914D
:1024C00086FD0FC00FB607FCF5CF808185FFF2CFE8
:1024D000A889B9898C9185FFEDCFCE010E94E311C7
:1024E000E7CFDF91CF910895833081F028F48130D8
:1024F00099F08230A1F008958730A9F08830B9F0C2
:102500008430D1F4809180008F7D03C08091800061
:102510008F7780938000089584B58F7702C084B54B
:102520008F7D84BD08958091B0008F7703C0809126
:10253000B0008F7D8093B00008950F931F93CF93C9
:10254000DF93EC018B01888599850297F1F4613066
:10255000710569F024F4672BC1F460E009C06230B2
:10256000710559F06330710581F460E007C061E0E6
:102570008C850E94021861E005C061E08C850E9494
:10258000021860E08E850E9402188885998504975C
:10259000B9F501301105B1F04CF40115110581F5C3
:1025A00061E08C850E94021860E011C002301105C4
:1025B000B9F00330110521F561E08C850E94021805
:1025C00060E013C060E08C850E94021861E08E8597
:1025D0000E94021861E088890E94021860E00DC024
:1025E00060E08C850E94021861E08E850E940218CE
:1025F00060E088890E94021861E08A890E940218BE
:1026000088859985059709F073C00A30110508F08F
:102610006FC0F801EE5BFF4F0C94881F60E08C8563
:102620000E94021861E051C060E08C850E9402188F
:1026300061E08E850E94021860E04BC060E08C85EE
:102640000E94021861E08E850E94021860E088896D
:102650000E94021861E041C060E001C061E08C8529
:102660000E94021861E005C061E08C850E9402189A
:1026700060E08E850E94021860E009C061E08C85F0
:102680000E94021860E08E850E94021861E088892D
:102690000E94021861E00DC061E08C850E94021862
:1026A00060E08E850E94021861E088890E9402180D
:1026B00060E08A890E94021860E013C061E001C0F6
:1026C00060E08C850E94021860E08E850E940218EE
:1026D00061E088890E94021860E08A890E940218DD
:1026E00061E08C89DF91CF911F910F910C940218BA
:1026F000DF91CF911F910F9108951F920F920FB606
:102700000F9211242F933F934F935F936F937F9377
:102710008F939F93AF93BF93EF93FF938091B900F3
:10272000887F803609F49CC068F5883209F45BC064
:1027300090F4803109F454C038F4882309F4F6C0C9
:10274000883009F44DC0F6C0883109F44CC080329D
:1027500009F45DC0EFC0803409F468C048F48033E8
:1027600009F455C0883309F0E5C08093C504D8C08A
:10277000803509F44FC0883509F45DC0883409F00C
:10278000D9C0D6C0883909F4C7C0A8F4883709F47D
:1027900067C038F4883609F463C0803709F460C034
:1027A000C9C0883809F4B8C0803909F45FC08038DE
:1027B00009F0C0C05BC0803B09F486C038F4803AA1
:1027C00009F466C0883A09F47FC0B4C0803C09F4BB
:1027D000A7C0883C09F4A4C0883B09F48AC0AAC0F9
:1027E0008091A20410C09091C4048091C3049817F2
:1027F00070F5E091C40481E08E0F8093C404F0E092
:10280000ED55FB4F80818093BB0085EC86C08093A3
:10281000C5048EC0E091C40481E08E0F8093C4048F
:102820008091BB00F0E0ED55FB4F80839091C40494
:102830008091C3046EC0E091C40481E08E0F809348
:10284000C4048091BB00F0E0ED55FB4F8083809184
:10285000C60481116DC081E08093A10484EA61C047
:1028600083E08093C70410929C04CFCF80919C0496
:10287000803208F051C0E0919C0481E08E0F80937B
:102880009C048091BB00F0E0E458FB4F8083BDCFF7
:1028900085EC8093BC001092C70480919C04803228
:1028A00030F4E0919C04F0E0E458FB4F108260911A
:1028B0009C0470E0E0915704F09158048CE794E098
:1028C000099510929C0436C084E08093C70410924E
:1028D0007B0410927A04E0915504F0915604099516
:1028E00080917A04811105C081E080937A0410926E
:1028F0005A04E0917B0481E08E0F80937B04F0E02A
:10290000E65AFB4F80818093BB0090917B048091BD
:102910007A04981708F479CF85E88093BC000AC040
:1029200085EC8093BC001092C70404C01092C504CB
:102930000E948910FF91EF91BF91AF919F918F916C
:102940007F916F915F914F913F912F910F900FBEAB
:102950000F901F901895DF92EF92FF920F931F93A5
:10296000CF93DF93EC01D62E7A01890188818C30D8
:1029700008F068C061E08D2D0E944F188881E82F13
:10298000F0E09F01220F331FE20FF31FE35CF94FCA
:102990009D2D9F732081207CD22ED92AD08220E2C7
:1029A00032E02E193F0937FF02C02D5F3F4F3595AA
:1029B000279535952795298320E639E0201B310B93
:1029C00037FF02C02D5F3F4F3595279535952795E9
:1029D0002A836CE00E94541F9CE0899FB00111245F
:1029E00040E050E09B01240F351FF901EE0FFF1F5F
:1029F0002E0F3F1FF901E35CF94F908196FD16C041
:102A00004F5F5F4F4C30510569F781110FC0109235
:102A1000800082E0809381001092850010928400F3
:102A2000B19A80916F00826080936F00E881F0E03E
:102A3000CF01880F991FE80FF91FE35CF94F8081E0
:102A4000806480838881DF91CF911F910F91FF90E7
:102A5000EF90DF9008951F920F920FB60F921124FE
:102A60002F933F934F935F936F937F938F939F9396
:102A7000AF93BF93EF93FF938091590487FF05C0F5
:102A800010928500109284001BC020915904022EE0
:102A9000000C330B8091610690E02817390784F40D
:102AA00080915904082E000C990BFC01EE0FFF1FBA
:102AB0008E0F9F1FFC01E35CF94F808186FD15C0DE
:102AC000809159048F5F8093590420915904022EFC
:102AD000000C330B8091610690E028173907C4F48D
:102AE000809159048C3064F113C080915904082EF0
:102AF000000C990BFC01EE0FFF1F8E0F9F1FFC01B6
:102B0000E35CF94F808160E08F730E940218D8CF98
:102B10008091840090918500049680349C4918F43B
:102B200080E49CE905C08091840090918500049622
:102B300090938900809388008FEF809359043BC065
:102B4000209184003091850080915904082E000C5A
:102B5000990BFC01EE0FFF1F8E0F9F1FFC01E35C22
:102B6000F94F81819281820F931F90938900809306
:102B7000880080915904082E000C990BFC01EE0F7F
:102B8000FF1F8E0F9F1FFC01E35CF94F808186FFC2
:102B900012C080915904082E000C990BFC01EE0F15
:102BA000FF1F8E0F9F1FFC01E35CF94F808161E0E6
:102BB0008F730E940218FF91EF91BF91AF919F9187
:102BC0008F917F916F915F914F913F912F910F90D6
:102BD0000FBE0F901F9018950F931F93CF93DF9305
:102BE000EC0107E915E0D8018D919C916C2F6F776E
:102BF000DC01ED91FC910190F081E02D0995F80147
:102C000080819181CC0FCD2FCC1FDD0B6C2F6F7786
:102C1000DC01ED91FC910190F081E02DDF91CF91ED
:102C20001F910F9109948091970590919805DC016F
:102C3000ED91FC910190F081E02D67EF0994809176
:102C4000970590919805DC01ED91FC910190F08140
:102C5000E02D60EF0994CF93DF93DC01FB01428309
:102C60008CEE94E0918380831296CD91DC91139742
:102C700098818381892B888382818D7F813041F483
:102C800015969C9115978381892B15968C93159792
:102C900082818150823040F416969C9116978381F0
:102CA000892B16968C9316979091680014968C91A8
:102CB000892B80936800DF91CF910895CF93DF93A4
:102CC000EB01A0919705B09198058F70682F606E09
:102CD000ED91FC9111970190F081E02DCD010995C6
:102CE000CE01DF91CF910C94EC15FF920F931F93BF
:102CF000CF93DF93C82F162FF42E052F0E941F1697
:102D00008091970590919805DC01ED91FC910190DF
:102D1000F081E02D6C2F0995CF2DD02FCE01810FA2
:102D2000911D8C01C017D10729F0899190E00E9474
:102D3000EC15F8CFDF91CF911F910F91FF900C947C
:102D40001316FC0101900020E9F73197BF01681BC1
:102D5000790BAC0181E70C947516EF92FF921F93EB
:102D6000CF93DF9390E0FC01EB52FF4F24912111B0
:102D700002C08FEF53C030E02250310923303105BB
:102D800040F4220F331FD901A05FBE4FED90FC909D
:102D900002C0E12CF12CD701ED91FC91119720811B
:102DA00017962C93FC01EF53FF4F1491F701808588
:102DB0009185009771F0EC018B81181307C041E0F9
:102DC000BE01C7010E942B1680E028C08D819E8124
:102DD000F0CF87E090E00E94951FDC01892B19F469
:102DE00010920200C6CF81E012968C93129716962D
:102DF0001C921E92159713961C931397F7018085CA
:102E00009185892B19F4B187A08702C0BE83AD8359
:102E100041E0BD01C7010E942B1681E0DF91CF91F7
:102E20001F91FF90EF900895CF93DF930E941F169C
:102E30008091970590919805DC01ED91FC910190AE
:102E4000F081E02D69E709958091970590919805AB
:102E5000A0919A05B0919B05EC01E881F981019060
:102E6000F081E02D6C9109958091970590919805DE
:102E7000A0919A05B0919B05EC01E881F981019040
:102E8000F081E02D11966C910995C2E08091990531
:102E9000C81760F4E0919A05F0919B05EC0FF11DC5
:102EA000808190E00E94EC15CF5FF0CFDF91CF9151
:102EB0000C941316CF93DF93C7E9D5E088819981ED
:102EC000DC01ED91FC910190F081E02D69EF099515
:102ED00088819981DC01ED91FC910190F081E02DD8
:102EE00062E0099588819981DC01ED91FC91019066
:102EF000F081E02D65E0DF91CF910994A0919705D5
:102F0000B0919805ED91FC9111970190F081E02D21
:102F1000682FCD010994282F3091EB04313208F04D
:102F20004AC08091C7048111FCCF9091EA0442E02D
:102F30004093C7042093C6042FEF2093C50410923A
:102F4000C4043093C304EAECF4E0A3EAB4E020E064
:102F5000321721F041914D932F5FFACF1092A204C6
:102F60002091A204990F922B9093A2049091A10416
:102F7000913061F41092A1049091A2049093BB004F
:102F80009091BC0093FDF8CF95EC01C095EE909325
:102F9000BC009091C7049230E1F39091C5049F3F2B
:102FA00079F08091C504803241F08091C50480336E
:102FB00031F084E005C081E003C082E001C083E01D
:102FC0001092C9041092EB041092C8040895109254
:102FD0009C0510929D0510929E05EFE9F5E0119277
:102FE00085E0EF3DF807D9F71092DF051092E10573
:102FF0001092E005E0912A06F0912B06309709F037
:103000000994089590E0FC01E355FF4F2491FC01E1
:10301000EF53FF4F3491FC01EB52FF4FE491EE234D
:1030200009F43CC0222339F1233091F038F42130E7
:10303000A9F0223001F584B58F7D12C0273091F0C0
:103040002830A1F02430B9F4809180008F7D03C036
:10305000809180008F77809380000DC084B58F773A
:1030600084BD09C08091B0008F7703C08091B0000B
:103070008F7D8093B000F0E0EE0FFF1FED55FF4F06
:10308000A591B4919FB7F894611104C08C913095CB
:10309000382302C0EC913E2B3C939FBF0895CF9301
:1030A000DF9390E0FC01EF53FF4F2491FC01EB52C2
:1030B000FF4F8491882361F190E0880F991FFC01F4
:1030C000E756FF4FC591D491FC01ED55FF4FA591F7
:1030D000B491611109C09FB7F8948881209582232B
:1030E0008883EC912E230BC0623061F49FB7F89473
:1030F0008881322F309583238883EC912E2B2C935B
:103100009FBF06C08FB7F894E8812E2B28838FBF0E
:10311000DF91CF9108958E3008F08E5087708064D3
:1031200080937C0080917A00806480937A00809103
:103130007A0086FDFCCF809178002091790090E0A4
:10314000922B08953FB7F89480919D0490919E042E
:10315000A0919F04B091A00426B5A89B05C02F3F65
:1031600019F00196A11DB11D3FBFBA2FA92F982FAD
:103170008827820F911DA11DB11DBC01CD0142E028
:10318000660F771F881F991F4A95D1F708958F9270
:103190009F92AF92BF92CF92DF92EF92FF926B011C
:1031A0007C010E94A2184B015C01C114D104E1040E
:1031B000F104F1F00E94A218DC01CB0188199909F1
:1031C000AA09BB09883E9340A105B10570F321E02F
:1031D000C21AD108E108F10888EE880E83E0981E33
:1031E000A11CB11CC114D104E104F10419F7DDCF15
:1031F000FF90EF90DF90CF90BF90AF909F908F9017
:103200000895789484B5826084BD84B5816084BD5E
:1032100085B5826085BD85B5816085BD80916E0074
:10322000816080936E0010928100809181008260A5
:1032300080938100809181008160809381008091E2
:1032400080008160809380008091B10084608093D1
:10325000B1008091B00081608093B00080917A00CD
:10326000846080937A0080917A00826080937A00F3
:1032700080917A00816080937A0080917A008068E2
:1032800080937A001092C1008BE180939905809120
:103290009A0590919B050E942D20C0919905D0E040
:1032A000CE0101960E94951F90939B0580939A05ED
:1032B000FC01EC0FFD1F108212E0DC011C9325E0E5
:1032C00011962C93AE014250510969EC72E00296BE
:1032D0000E94912184E59BE090931F0680931E0637
:1032E00084EB9AE090932106809320068FE79AE082
:1032F000909323068093220685ED9CE0909325060B
:10330000809324068CE19EE0909327068093260606
:103310008BE79CE0909329068093280685EA90E04D
:1033200090932F0680932E0689E491E190932B06CB
:1033300080932A06E0910A05F0910B051083E09135
:103340000A05F0910B051082E0910605F091070542
:103350001082E0910805F091090580E180831092C8
:103360001205E0910E05F0910F0586E08083E09153
:103370000C05F0910D05808180618083E0910C0542
:10338000F0910D05808188608083E0910C05F091BB
:103390000D05808180688083E0910C05F0910D051A
:1033A00080818F7D80838AEF94E09093980580934D
:1033B000970580913006811140C061E08DE00E9448
:1033C0004F18C0E062ED70E080E090E00E94C71806
:1033D00061E08DE00E94021868E270E080E090E019
:1033E0000E94C71860E08DE00E940218CF5FC230D3
:1033F00049F76AEF70E080E090E00E94C718C0E0F3
:1034000062ED70E080E090E00E94C71861E08DE01E
:103410000E94021868E270E080E090E00E94C71805
:1034200060E08DE00E940218CF5FC53049F76DE77C
:1034300070E080E090E00E94C7180E945A178091C7
:10344000990581110E9414170E94491177247394E1
:1034500068EEE62E63E0F62E75E0672EEBE0CE2EEA
:10346000D12CF3E2AF2EB12CA9E38A2E912C8091BE
:103470006203882349F069B180915F0368236C7F00
:1034800040E080E00E94900C80916303882381F0EB
:1034900083B196B1682F6F73B0E49B9FC001112474
:1034A000862B60916003682340E081E00E94900CCD
:1034B00080916403882359F066B16C7366956695B4
:1034C00080916103682340E082E00E94900C80912B
:1034D000970590919805DC01ED91FC910084F185B0
:1034E000E02D0995892B09F42CC1809197059091C5
:1034F0009805DC01ED91FC910284F385E02D09959E
:103500008F3FBFEF9B0719F3382F2091DF05222350
:1035100009F467C0873F09F055C01092DF0580911C
:103520009F05813751F0893709F03EC08091990598
:10353000882369F20E941417CACFE0912C06F091FB
:103540002D06309721F28091E0059091E105DC0194
:103550001197B7FDDC01BD0175956795562F87E979
:1035600095E0EC0130E002962196351770F4DC010D
:1035700017962C9117972F8318964C9147954427AF
:103580004795240F2F833F5FEECFDB01BB27A95662
:10359000BA4F17968C911797882311F018961C92A2
:1035A0008FE995E0099593CFE0912E06F0912F06D3
:1035B000309709F48CCF6091E005615040EA55E006
:1035C000099585CF2091E0053091E105F901E95693
:1035D000FA4F80872F5F3F4F3093E1052093E0053E
:1035E00076CF20919C05222309F469C087FD67C02E
:1035F0009FEF920F90939C05E92FF0E0E956FA4F68
:103600008087911164CF80919D05882309F45FCF55
:10361000803D09F445C050F4803901F1803C09F047
:103620004BC0E0912206F09123063EC0843F39F161
:10363000853F51F1803E09F03FC0E0911E06F091B8
:103640001F063097C9F180919F056091A00570E039
:10365000B0E88B9F600D711D11242BC0E0912006F6
:10366000F0912106309741F180919F056091A0056E
:1036700070E020E8829F600D711D11241AC0E09156
:103680002606F091270604C0E0912806F09129064D
:10369000309791F060919F0570E08091A0050BC07C
:1036A000E0912406F0912506309731F060919F0556
:1036B00070E080919E05099510929D0508CF303FDE
:1036C00038F4282F207F30E08F7080939E0502C051
:1036D0009C013327203F310551F17CF4203C31051A
:1036E00009F124F420393105C9F0F1CE203D31052E
:1036F000C9F0203E310591F0EACE293F3105F1F0C5
:1037000034F4C901845F9109029740F0E0CE2F3F65
:10371000310509F0DCCE0E94E717D9CE42E0409394
:103720009C0502C070929C0520939D05D0CE70929E
:10373000DF051092E1051092E005C9CE0E945A17EC
:10374000C6CE8FB7F8944091AF035091B00360910B
:10375000B1037091B2038FBF2090C0033090C103BA
:103760004090C2035090C3032091020130910301A5
:10377000C901A0E0B0E04219530964097509841732
:103780009507A607B70708F0D2C1820D931DA41DA7
:10379000B51D8093C0039093C103A093C203B0935F
:1037A000C3038091BE039091BF039C012F5F3F4FE5
:1037B0003093BF032093BE032091AD033091AE033D
:1037C000281739070CF0D7C01092BF031092BE0320
:1037D0008091AB039091AC03892B09F4CCC000918C
:1037E000BC031091BD03F801EE0FFF1FE156FC4F23
:1037F000C081D181E885F98590818C81892B808376
:10380000EE81FF8190818C81809589238083C60120
:103810000197F1F7EE81FF8190818C81892B808364
:10382000C5010197F1F7EE81FF8190818C81809530
:1038300089238083E885F98590818C81809589230F
:1038400080830E94A218DC01CB01805B994BAF4FB3
:10385000BF4F8E879F87A88BB98BEA85FB859081A8
:103860008D81892359F00E94A2182E853F854889B1
:103870005989261737074807590778F7EA85FB85DE
:1038800090818D81892371F40E94A2182E853F8535
:1038900048895989261737074807590778F780E07C
:1038A00090E02DC00E94A2182C853D85DC01CB0143
:1038B000820F931FA11DB11D8E879F87A88BB98B87
:1038C000EA85FB8590818D81892361F00E94A21891
:1038D0002E853F8548895989261737074807590794
:1038E00078F7DDCF0E94A2182C853D85255031093F
:1038F0004E855F85241B350BC901860F971FB401C8
:103900000E94601FCB010093BB0398012F5F3F4FC4
:103910003093BD032093BC032091AB033091AC03E3
:10392000215031090217130724F01092BD031092A1
:10393000BC036F776093BA03880F892F881F990B98
:103940008093B90380EF0E947E1783E60E947E1762
:10395000E091BB03F0E0E756FC4F80810E947E17A8
:103960008091BA030E947E178091B9030E947E174E
:1039700087EF0E947E17C2EED5E012EF1630B0F44A
:103980008881823099F48091970390919803012E59
:1039900002C0959587950A94E2F780FF07C0812FB2
:1039A0000E948B18BC01812F0E945E161F5F21961A
:1039B000163021F78091010187FD1BC0C0E02C2F3C
:1039C00030E080910101082E000C990B82179307BB
:1039D00084F0629EF001639EF00D1124E159FC4FCA
:1039E000618172812481438180810E94FC0CCF5FC0
:1039F000E6CF80916E03882309F45DC01092B8036E
:103A00001092B703E0916503F0916603F093B4035D
:103A1000E093B303309729F41092B4031092B303E8
:103A200026C08185811104C00484F585E02DF2CF84
:103A3000F093B403E093B30387FF03C091E0980FC2
:103A400091879185191614F49150918718160CF0EE
:103A500071C02091B5033091B603D901A80FB11DF3
:103A600087FDBA95CD019093B6038093B5038091FD
:103A7000B5039091B603282F2F772093B703880FB3
:103A8000892F881F990B8F778093B80380EF0E944E
:103A90007E1781E60E947E1780916D030E947E173B
:103AA0008091B7030E947E178091B8030E947E1711
:103AB00087EF0E947E1780916B0390916C03892B96
:103AC000B1F18FB7F8944091AF035091B00360917A
:103AD000B1037091B2038FBF809167039091680327
:103AE000A0916903B0916A03481B590B6A0B7B0BC9
:103AF00020916B0330916C032E9DC0012F9D900D82
:103B00003E9D900D1124A0E0B0E084179507A60714
:103B1000B70768F40E94491198E088E10FB6F8945D
:103B2000A895809360000FBE90936000FFCF0E9425
:103B300058109DCC2091B5033091B603F901E80FE0
:103B4000F11D87FDFA95CF018ECFCF92DF92EF92D4
:103B5000FF921092FD041092FC0478EEC72E73E0E1
:103B6000D72EE12CF12CC092FE04D092FF04E092FB
:103B70000005F09201058AE191E09093FB048093A7
:103B8000FA0485EC90E0909307058093060584EC99
:103B900090E0909309058093080580EC90E0909365
:103BA0000B0580930A0581EC90E090930D058093BE
:103BB0000C0582EC90E090930F0580930E0586EC47
:103BC00090E09093110580931005109213051092C8
:103BD00014051092150510921605109230061092D9
:103BE000990510929B0510929A050E94E717109272
:103BF000340610923306C0923506D0923606E09213
:103C00003706F09238068CE291E09093320680936A
:103C10003106EDEEF0E08591949190939B068093B0
:103C20009A068BE690E090939D0680939C0681E037
:103C300080939E0610929F061092A0061092A306F3
:103C40001092A206EFEEF0E0859194919093910688
:103C5000809390068CE690E0909393068093920672
:103C600082E0809394061092950610929606109228
:103C7000990610929806E1EFF0E085919491909367
:103C80008706809386068DE690E090938906809360
:103C9000880684E080938A0610928B0610928C0628
:103CA00010928F0610928E0680916106A2E6B6E011
:103CB0009FEF48EB5BE08C3078F48C93282F30E05A
:103CC000F901EE0FFF1F2E0F3F1FF901E35CF94FC3
:103CD000528341838F5F01C09C93139626E0A638E0
:103CE000B20749F780936106FF90EF90DF90CF9085
:103CF0000895BB272A3051F4992342F4BDE29095F0
:103D00008095709561957F4F8F4F9F4F0C94891EC2
:103D1000BB27FA01A62F6217710581059105330BA8
:103D200030FB66F0AA27660F771F881F991FAA1F0E
:103D3000A21710F0A21B63953850A9F7A05DAA3313
:103D400008F0A95DA19336F7B111B1931082CA01B1
:103D50000C94AA1EDC01FC01672F71917723E1F717
:103D6000329704C07C916D9370836291AE17BF0748
:103D7000C8F30895052E97FB1EF400940E94D11EEF
:103D800057FD07D00E94231F07FC03D04EF40C946C
:103D9000D11E50954095309521953F4F4F4F5F4F25
:103DA000089590958095709561957F4F8F4F9F4FA7
:103DB00008950E94451FA59F900DB49F900DA49F4C
:103DC000800D911D11240895B7FF0C94D91E0E94F7
:103DD000D91E821B930B08952F923F924F925F92B0
:103DE0006F927F928F929F92AF92BF92CF92DF920B
:103DF000EF92FF920F931F93CF93DF93CDB7DEB770
:103E0000CA1BDB0B0FB6F894DEBF0FBECDBF099403
:103E10002A88398848885F846E847D848C849B845A
:103E2000AA84B984C884DF80EE80FD800C811B8168
:103E3000AA81B981CE0FD11D0FB6F894DEBF0FBE97
:103E4000CDBFED010895A1E21A2EAA1BBB1BFD01F7
:103E50000DC0AA1FBB1FEE1FFF1FA217B307E40769
:103E6000F50720F0A21BB30BE40BF50B661F771FC1
:103E7000881F991F1A9469F76095709580959095A1
:103E80009B01AC01BD01CF010895A29FB001B39F7A
:103E9000C001A39F700D811D1124911DB29F700D53
:103EA000811D1124911D0895991B79E004C0991F6B
:103EB000961708F0961B881F7A95C9F78095089584
:103EC000AA1BBB1B51E107C0AA1FBB1FA617B70740
:103ED00010F0A61BB70B881F991F5A95A9F780955C
:103EE0009095BC01CD01089597FB072E16F4009420
:103EF00007D077FD09D00E94601F07FC05D03EF473
:103F0000909581959F4F0895709561957F4F089585
:103F1000EE0FFF1F0590F491E02D09940E94451FBC
:103F2000B7FF0895821B930B08950F931F93CF93B0
:103F3000DF938230910510F482E090E0E091A606D4
:103F4000F091A70620E030E0A0E0B0E0309719F152
:103F5000408151810281138148175907C8F08417A5
:103F6000950769F4109731F012960C9312971396F7
:103F70001C9327C00093A6061093A70622C0211504
:103F8000310519F04217530718F49A01BD01EF01EA
:103F9000DF01F801DBCF21153105F9F0281B390BC2
:103FA0002430310580F48A819B816115710521F0EF
:103FB000FB019383828304C09093A7068093A60697
:103FC000FE01329644C0FE01E20FF31F81939193EC
:103FD00022503109398328833AC02091A4063091B8
:103FE000A506232B41F4209106013091070130935F
:103FF000A5062093A4062091040130910501211506
:10400000310541F42DB73EB74091080150910901A7
:10401000241B350BE091A406F091A506E217F307E7
:10402000A0F42E1B3F0B2817390778F0AC014E5F28
:104030005F4F2417350748F04E0F5F1F5093A506BA
:104040004093A4068193919302C0E0E0F0E0CF0199
:10405000DF91CF911F910F910895CF93DF93009738
:1040600009F481C0FC01329713821282A091A60646
:10407000B091A706109781F420813181820F931FA0
:104080002091A4063091A5062817390751F5F09321
:10409000A506E093A40667C0ED0120E030E0CE174E
:1040A000DF0740F44A815B819E0141155105F1F023
:1040B000EA01F5CFD383C28340815181840F951FDC
:1040C000C817D90759F488819981840F951F0296E2
:1040D000918380838A819B8193838283211531051B
:1040E00029F4F093A706E093A6063DC0E901FB83FF
:1040F000EA8349915991C40FD51FEC17FD0761F46C
:1041000080819181840F951F0296E90199838883AC
:10411000828193819B838A83E0E0F0E012968D9107
:104120009C911397009719F0FD01DC01F7CF8D9159
:104130009C9111979D012E5F3F4F820F931F2091FD
:10414000A4063091A5062817390769F4309729F499
:104150001092A7061092A60602C013821282B09394
:10416000A506A093A406DF91CF910895A0E0B0E04A
:10417000ECEBF0E20C94F01EEC01009721F4CB0183
:104180000E94951FB4C0FC01E60FF71F9C0122504E
:104190003109E217F30708F4A8C0D9010D911C9169
:1041A000119706171707B0F00530110508F49BC0EA
:1041B000C80104978617970708F495C002501109A3
:1041C000061B170B019311936D937C93CF010E94F3
:1041D0002D2089C05B01A01AB10A4C01800E911EEE
:1041E000A091A606B091A706612C712CE12CF12CB0
:1041F000109709F446C08D919C911197A815B905A7
:10420000B1F56C0142E0C40ED11CCA14DB0478F194
:104210004C018A189B08640142E0C40ED11C12961E
:10422000BC9012971396AC91B5E0CB16D10440F038
:10423000B282A38391828082D9016D937C9309C05D
:104240000E5F1F4F800F911FF90191838083EB2D2B
:10425000FA2FE114F10431F0D7011396FC93EE9399
:10426000129741C0F093A706E093A6063CC06816DB
:10427000790608F43C017D0112960D90BC91A02DA9
:10428000B7CF8091A4069091A50688169906E1F40F
:1042900066167706C8F48091040190910501009795
:1042A00041F48DB79EB74091080150910901841BDC
:1042B000950BE817F907C8F4F093A506E093A40658
:1042C000F901718360830FC0CB010E94951F7C01AF
:1042D000009759F0A801BE010E948121CE010E94E1
:1042E0002D20C70104C0CE0102C080E090E0CDB710
:1042F000DEB7EEE00C940C1F81E090E0F8940C9493
:10430000A021FB01DC0102C001900D924150504000
:10431000D8F70895FB01DC0101900D920020E1F730
:104320000895FB01DC014150504048F001900D928E
:104330000020C9F701C01D9241505040E0F7089598
:04434000F894FFCF1F
:10434400FFFF13000000A8068000000000006210B8
:104354009A06900686060000000005120C091B1040
:1043640052124C102A103E10000000001611E910E1
:104374004611BD10E110CD10BE1031302D626974AC
:104384002061646472657373696E67206E6F742054
:10439400737570706F7274656400746F6F206D61F3
:1043A4006E7920717565726965730050494E475F77
:1043B400434F4E464947204572726F723A20457802
:1043C400636565646564206E756D626572206F66F1
:1043D40020737570706F727465642070696E6720E5
:1043E40064657669636573005354455050455220A3
:1043F400434F4E464947204572726F723A205772B6
:104404006F6E67204E756D626572206F66206172F3
:1044140067756D656E74730061726763203D20007B
:1044240053544550504552204F5045524154452015
:104434004572726F723A204D4F544F52204E4F5472
:1044440020434F4E46494755524544005354455026
:10445400504552204649524D5741524520564552E7
:1044640053494F4E204572726F723A204E4F204D81
:104474004F544F525320434F4E464947555245449B
:10448400005354455050455220434F4E464947200F
:104494004572726F723A20554E4B4E4F574E205311
:1044A40054455050455220434F4D4D414E440046D3
:1044B4003A5C4C6F67696369656C735C41726475DF
:1044C400696E6F546563686E6F456475635C706F85
:1044D400727461626C655C736B65746368626F6F40
:1044E4006B5C312E426C6F636B6C794172647569DD
:1044F4006E6F5C4669726D617461506C75732D509A
:10450400794D61746141494F5C4669726D617461B2
:10451400506C75732D50794D61746141494F2E690A
:104524006E6F004932433A20546F6F206D616E798B
:1045340020627974657320726563656976656400C9
:104544004932433A20546F6F20666577206279744C
:104554006573207265636569766564004D617820D2
:10456400736572766F732061747461636865640047
:10457400556E6B6E6F776E2070696E206D6F64651B
:02458400000035
:00000001FF
