:100000000C9462000C948A000C948A000C948A0070
:100010000C948A000C948A000C948A000C948A0038
:100020000C948A000C948A000C948A000C94500161
:100030000C948A000C948A000C948A000C948A0018
:100040000C9411040C948A000C94E7020C948A001E
:100050000C948A000C948A000C948A000C948A00F8
:100060000C948A000C948A000000000024002700F1
:100070002A0000000000250028002B0000000000DE
:1000800023002600290004040404040404040202DA
:100090000202020203030303030301020408102007
:1000A0004080010204081020010204081020000012
:1000B0000007000201000003040600000000000029
:1000C0000000A00311241FBECFEFD8E0DEBFCDBFDC
:1000D00011E0A0E0B1E0EAE1FCE002C005900D9281
:1000E000AA36B107D9F712E0AAE6B1E001C01D9225
:1000F000A034B107E1F710E0C4ECD0E004C02297CF
:10010000FE010E940706C23CD107C9F70E94E00227
:100110000C940B060C940000809394010895209198
:100120008A01222329F0809195018F5F80939501A8
:100130008091960190919701281759F0903510F011
:100140008DE101C08BE0890F809397012093960188
:1001500003C09C5E9093970190919701903A08F4A8
:1001600088C0209198013091990136952795309358
:1001700099012093980180919501853028F038608D
:100180003093990120939801905A9093970110927F
:10019000950180919301882309F45BC080919A01B5
:1001A0008F5F80939A018C3008F463C0209198018E
:1001B00030919901922F9F73A3E5B1E0FD0140E0DA
:1001C0008081981729F04F5F31964031C9F740E0A0
:1001D00086E0369527958A95E1F790E08C9128176F
:1001E00029F09F5F11969031C9F790E0242F229556
:1001F000207F292B80916B01882371F420939B0130
:10020000822F84508B3140F01092930180919C0199
:100210008F5F80939C01089580916B01E82FF0E03F
:10022000E459FE4F20838F5F80936B0190916B01A7
:1002300080919B01981750F01092930180919D013D
:100240008F5F80939D0181E080936A0110929A01F3
:100250000895809198019091990188539B4049F4A9
:1002600081E08093930110929A0110926B01109299
:100270006A01089580918B018823E1F708958091A8
:100280005201609194010E94050580910D0160E08A
:100290000E94050510928B0181E0809392010895E0
:1002A0001F920F920FB60F9211242F933F934F93EB
:1002B0005F936F937F938F939F93AF93BF93EF93CE
:1002C000FF9380910C010E94520580938A018091D6
:1002D0008B018823D1F180918C018F5F80938C01F9
:1002E000815099F5E0918D0180918E01E81760F0C1
:1002F0000E943F0180918F0190919001019690930F
:10030000900180938F0121C080910D019091910106
:1003100021E030E0092E02C0220F331F0A94E2F7D9
:10032000F0E0E25FFE4F608162239F5F9093910156
:100330000E94050580919101863038F0109291015C
:1003400080918D018F5F80938D0180918C01883029
:1003500010F010928C0180919201882311F00E947C
:100360008F00FF91EF91BF91AF919F918F917F91FE
:100370006F915F914F913F912F910F900FBE0F9012
:100380001F9018951F9310928D0110929101109259
:100390008C01109292016091940111E0612780918B
:1003A00052010E94050510938B011F910895CF9370
:1003B000DF93482F562F6C3110F080E0A1C0809160
:1003C0008B018823E1F7A52FAD5F6FEF7FEF6A27E1
:1003D000062E6295607F6025072E762F62956F70DE
:1003E0000626669576276727660F660F660F6025D7
:1003F000B0E0FD0124E0F595E7952A95E1F7ED5A87
:10040000FE4F808180931601AF70B070AD5ABE4F21
:100410008C9180931701C8E1D1E0242F392FC901B5
:10042000DC0125C0EC916E27062E6295607F602569
:10043000072E762F62956F700626669576276727BA
:10044000660F660F660F6025F0E094E0F595E7957E
:100450009A95E1F7ED5AFE4F80818883ED91F0E0A7
:10046000EF70F070ED5AFE4F8081898322968A2FBB
:10047000841B8517B8F25F5F550F9B01209530955F
:10048000A52FB0E0AA5EBE4FF90184E0F695E7958E
:100490008A95E1F7EF70F070ED5AFE4F80818C93F2
:1004A000A52FAF5F8A2F90E08A5E9E4FF901EF7013
:1004B000F070ED5AFE4F4081FC014083AF5F8A2F00
:1004C00090E08A5E9E4FF901EF2FFF27E295EF70D3
:1004D000ED5AFE4F4081FC014083AF5FB0E0AA5E61
:1004E000BE4F232F33272F7030702D5A3E4FF90106
:1004F00080818C93545F50938E010E94C20181E0F1
:10050000DF91CF9108959C0140E050E060E874E8ED
:100510008EE190E00E94B4051092800089E0809303
:1005200081003093890020938800EFE6F0E080811D
:100530008260808380910D0161E00E94E5048091DA
:100540000C0160E00E94E5048091520161E00E948C
:10055000E50480915201609194010E94050508957F
:100560008DE061E00E94050580E091E065E00E9479
:10057000D7010E943A018DE060E00E94050568EC19
:1005800070E080E090E00E94810408950F931F9333
:1005900002E212E0C80140E855E260E070E00E942B
:1005A0002403C80166E071E00E94060481E00E9415
:1005B0008C0080ED97E00E9483021F910F910895B7
:1005C0000E94AB040E94C6020E94B002FDCF1F929F
:1005D0000F920FB60F9211242F933F934F935F9377
:1005E0006F937F938F939F93AF93BF93EF93FF93FB
:1005F0004091C600E0911E02F0911F02CF010196CA
:1006000060E870E00E94A1059C0180912002909119
:1006100021022817390739F0E256FE4F4083309304
:100620001F0220931E02FF91EF91BF91AF919F9106
:100630008F917F916F915F914F913F912F910F908B
:100640000FBE0F901F901895AF92BF92CF92DF927E
:10065000EF92FF920F931F93CF93DF936C017A0178
:100660008B01DC011496AD90BC901597CB01BA01BB
:1006700022E030E040E050E00E94D605205C3D4B97
:10068000404F5F4FCA01B901A80197010E94D605EA
:10069000C901DA010197A109B109292F3A2F4B2F7E
:1006A000552747FD5A950196A11DB11DE5012883E7
:1006B000E601EE81FF8181508083EA85FB85208100
:1006C00041E050E0CA010E8402C0880F991F0A94CD
:1006D000E2F7282B2083EA85FB852081CA010F845D
:1006E00002C0880F991F0A94E2F7282B2083EA851D
:1006F000FB858081088802C0440F551F0A94E2F7E9
:10070000842B8083DF91CF911F910F91FF90EF9009
:10071000DF90CF90BF90AF900895FC01A085B18588
:1007200021898C9190E0022E02C0959587950A94BC
:10073000E2F780FFF6CF0484F585E02D608308950D
:1007400087E691E090932302809322028EE991E064
:10075000909325028093240285EC90E090932702E9
:100760008093260284EC90E09093290280932802E3
:1007700080EC90E090932B0280932A0281EC90E031
:1007800090932D0280932C0286EC90E090932F02A0
:1007900080932E0284E08093300283E080933102C4
:1007A00087E08093320285E08093330208950F93AF
:1007B0001F93CF93DF938C01EB0109C02196D801E1
:1007C000ED91FC910190F081E02DC80109956881BF
:1007D0006623A1F7DF91CF911F910F9108950F9399
:1007E0001F938C01DC01ED91FC910190F081E02DD3
:1007F0006DE00995D801ED91FC910190F081E02D1B
:10080000C8016AE009951F910F9108950F931F93F6
:100810008C010E94D703C8010E94EF031F910F9122
:1008200008951F920F920FB60F9211242F938F935A
:100830009F93AF93BF938091340290913502A09122
:100840003602B09137020196A11DB11D809334028A
:1008500090933502A0933602B0933702809138020C
:1008600090913902A0913A02B0913B028050904C95
:10087000AF4FBF4F8093380290933902A0933A0252
:10088000B0933B0227C08091380290913902A09129
:100890003A02B0913B0280589E43A040B040809302
:1008A000380290933902A0933A02B0933B028091B0
:1008B0003C0290913D02A0913E02B0913F02019610
:1008C000A11DB11D80933C0290933D02A0933E0276
:1008D000B0933F028091380290913902A0913A0280
:1008E000B0913B0281589E43A040B04060F6BF915A
:1008F000AF919F918F912F910F900FBE0F901F90EE
:100900001895EF92FF920F931F937B018C018FB785
:10091000F89440913C0250913D0260913E027091EA
:100920003F028FBF2FB7F89480913C0290913D0217
:10093000A0913E02B0913F022FBF841B950BA60BE6
:10094000B70BE816F9060A071B0760F71F910F910E
:10095000FF90EF900895789484B5826084BD84B54B
:10096000816084BD85B5826085BD85B5816085BDAA
:10097000EEE6F0E0808181608083E1E8F0E0808154
:1009800082608083808181608083E0E8F0E0808104
:1009900081608083E1EBF0E0808184608083E0EB24
:1009A000F0E0808181608083EAE7F0E0808184600C
:1009B0008083808182608083808181608083808168
:1009C000806880831092C1000895282F30E0C9010B
:1009D00086569F4FFC0194912A573F4FF90184910D
:1009E000882391F0E82FF0E0EE0FFF1FE859FF4F4A
:1009F000A591B491662329F48C91909589238C93C9
:100A000008958C91892B8C930895482F50E0CA014A
:100A100082559F4FFC012491CA0186569F4FFC01CD
:100A200094914A575F4FFA0134913323D1F1222335
:100A300031F1233021F4809180008F7705C024307C
:100A400031F4809180008F7D8093800018C0213028
:100A500019F484B58F7704C0223021F484B58F7DDA
:100A600084BD0DC0263021F48091B0008F7705C081
:100A7000273029F48091B0008F7D8093B000E32F60
:100A8000F0E0EE0FFF1FEE58FF4FA591B4916623E3
:100A900029F48C91909589238C9308958C91892BBE
:100AA0008C930895682F70E0CB0182559F4FFC0115
:100AB0002491CB0186569F4FFC0144916A577F4F8A
:100AC000FB019491992319F420E030E038C02223EF
:100AD00031F1233021F4809180008F7705C02430DC
:100AE00031F4809180008F7D8093800018C0213088
:100AF00019F484B58F7704C0223021F484B58F7D3A
:100B000084BD0DC0263021F48091B0008F7705C0E0
:100B1000273029F48091B0008F7D8093B000892F19
:100B200090E0880F991F84589F4FFC01A591B491C4
:100B30008C9120E030E0842311F021E030E0C90105
:100B4000089597FB092E07260AD077FD04D049D0D7
:100B500006D000201AF4709561957F4F0895F6F73E
:100B6000909581959F4F0895A1E21A2EAA1BBB1B59
:100B7000FD010DC0AA1FBB1FEE1FFF1FA217B30769
:100B8000E407F50720F0A21BB30BE40BF50B661F7F
:100B9000771F881F991F1A9469F760957095809543
:100BA00090959B01AC01BD01CF01089597FB092EE3
:100BB00005260ED057FD04D0D7DF0AD0001C38F42C
:100BC00050954095309521953F4F4F4F5F4F089579
:100BD000F6F790958095709561957F4F8F4F9F4F59
:100BE0000895AA1BBB1B51E107C0AA1FBB1FA61774
:100BF000B70710F0A61BB70B881F991F5A95A9F7C6
:100C000080959095BC01CD010895EE0FFF1F0590D2
:0A0C1000F491E02D0994F894FFCF51
:100C1A0068656C6C6F007365747570000B0C2A2A1A
:100C2A002A2A2A2A382C00000000000000000000AE
:100C3A0000000000000000000000000000000000AA
:100C4A00000000000000000000000000000000009A
:100C5A00000000000000000000000000000000008A
:100C6A0000000A0D0E131516191A1C232526292A07
:0A0C7A002C3234000000008D03004E
:00000001FF
