:100000000C94DA000C9402010C9402010C9402018D
:100010000C9402010C9402010C9402010C94020154
:100020000C9402010C9402010C9402010C94020144
:100030000C9402010C9402010C9402010C94020134
:100040000C94DA030C9402010C9402010C9402014A
:100050000C9402010C9402010C9402010C94020114
:100060000C9402010C94020100407A10F35A00A093
:10007000724E18090010A5D4E80000E87648170071
:1000800000E40B54020000CA9A3B000000E1F505B1
:10009000000080969800000040420F000000A086FB
:1000A00001000000102700000000E803000000002D
:1000B0006400000000000A000000000001000000D1
:1000C00000002C76D888DC674F0823DFC1DFAE59EB
:1000D000E1B1B796E5E3E453C63AE651997696E87E
:1000E000E6C28426EB898C9B62ED407C6FFCEFBC02
:1000F0009C9F40F2BAA56FA5F490055A2AF75C932D
:100100006B6CF9676DC11BFCE0E40D47FEF520E662
:10011000B500D0ED902E0300943577050080841E45
:10012000080000204E0A000000C80C333333330FA0
:10013000986E12831141EF8D2114893BE65516CF3D
:10014000FEE6DB18D1844B381BF77C1D901DA4BB49
:10015000E424203284725E228100C9F124ECA1E5FE
:100160003D27000000080002010000030407000012
:1001700000000000000000000000250028002B0007
:1001800000000000240027002A00040404040404E2
:100190000404020202020202030303030303010236
:1001A0000408102040800102040810200102040805
:1001B0001020A70511241FBECFEFD8E0DEBFCDBFB2
:1001C00021E0A6E2B1E001C01D92A735B207E1F738
:1001D00011E0A0E0B1E0E8E7F7E102C005900D9280
:1001E000A632B107D9F710E0CAEDD0E004C02197DC
:1001F000FE010E94B809C93DD107C9F70E94240435
:100200000C94BA0B0C94000090E0FC01E256FE4FF7
:100210002491FC01E657FE4F8491882399F090E0E9
:10022000880F991FFC01E058FE4FA591B491FC0185
:10023000EA58FE4F859194918FB7F894EC91E22B98
:10024000EC938FBF089590E0FC01EE59FE4F24918E
:10025000FC01E256FE4F3491FC01E657FE4FE4915B
:10026000EE2309F43CC0222339F1233091F038F415
:100270002130A9F0223001F584B58F7D12C02730DE
:1002800091F02830A1F02430B9F4809180008F7D66
:1002900003C0809180008F77809380000DC084B56B
:1002A0008F7784BD09C08091B0008F7703C08091A3
:1002B000B0008F7D8093B000F0E0EE0FFF1FEA5892
:1002C000FE4FA591B4919FB7F894611104C08C9131
:1002D0003095382302C0EC913E2B3C939FBF08958C
:1002E0008E3008F08E508770806480937C008091FF
:1002F0007A00806480937A0080917A0086FDFCCF3A
:10030000809178002091790090E0922B08953FB77A
:10031000F8948091370190913801A0913901B09102
:100320003A0126B5A89B05C02F3F19F00196A11DE3
:10033000B11D3FBFBA2FA92F982F8827820F911D7B
:10034000A11DB11DBC01CD0142E0660F771F881FC2
:10035000991F4A95D1F708958F929F92AF92BF92BD
:10036000CF92DF92EF92FF926B017C010E94870196
:100370004B015C01C114D104E104F104F1F00E94CD
:100380008701DC01CB0188199909AA09BB09883EBC
:100390009340A105B10570F321E0C21AD108E1082C
:1003A000F10888EE880E83E0981EA11CB11CC114D0
:1003B000D104E104F10419F7DDCFFF90EF90DF9055
:1003C000CF90BF90AF909F908F900895CF92DF9283
:1003D000EF92FF920F931F93CF93DF936C017A01FB
:1003E0008B01C0E0D0E0CE15DF0581F0D8016D9122
:1003F0008D01D601ED91FC910190F081E02DC601B7
:100400000995892B11F02196EECF7E01C701DF916E
:10041000CF911F910F91FF90EF90DF90CF900895B3
:10042000CF93DF93EC0160E08E810E94230161E0B5
:100430008E810E94230160E08E810E9423018BE85F
:1004400091E00197F1F7DF91CF910895CF92DF927C
:10045000EF92FF920F931F93CF93DF936C017C0178
:1004600087E0E80EF11CC0E0D0E0062F10E0B801F4
:100470000C2E02C0759567950A94E2F76170F7013A
:1004800081917F010E9423012196C430D10579F723
:10049000C601DF91CF911F910F91FF90EF90DF90F8
:1004A000CF900C941002CF92DF92EF92FF920F93B5
:1004B0001F93CF93DF93EC01F62E642F8C810E9463
:1004C00023018D818F3F19F060E00E9423018F8509
:1004D0000F2D10E084FF25C06E0187E0C80ED11CEF
:1004E000E12CF12CB8010E2C02C0759567950A9489
:1004F000E2F76170F60181916F010E942301FFEF25
:10050000EF1AFF0A88E0E816F10461F7CE01DF91E7
:10051000CF911F910F91FF90EF90DF90CF900C94AF
:100520001002B80184E0759567958A95E1F7CE01D0
:100530000E9426026F2DCE01DF91CF911F910F9166
:10054000FF90EF90DF90CF900C94260240E0682F50
:100550008BE391E00C94530281E00E94A6028BE3AE
:100560009FE10197F1F70895CF93DF93823028F050
:1005700090914A01986090934A0180934E011092A5
:100580004F0180E48093500180E18093510180E528
:100590008093520180913F010E94040180914001AB
:1005A0008F3F11F00E940401809141010E940401DB
:1005B000CBE3D1E09E012B53314080914A0184FD71
:1005C00003C084E090E002C088E090E02196281704
:1005D000390724F48E810E940401ECCF8BE39DE067
:1005E0000197F1F760E080913F010E94230160E0F4
:1005F000809141010E942301809140018F3F19F0B9
:1006000060E00E94230180914A0184FD20C063E0E4
:100610008BE391E00E942602CBE4D6E4CE01019761
:10062000F1F763E08BE391E00E9426022197F1F756
:1006300063E08BE391E00E94260283E592E001975C
:10064000F1F762E08BE391E00E94260215C0806220
:100650000E94A6028BE496E40197F1F780914A018B
:1006600080620E94A60283E592E00197F1F78091F3
:100670004A0180620E94A60280914A0180620E9423
:10068000A60284E080934B018CE00E94A6020E94A7
:10069000AC0282E080934C0186E0DF91CF910C9414
:1006A000A602843008F083E090914E01891710F083
:1006B0008FEF890FE82FF0E0E55CFE4F84898068BA
:1006C0000C94A60241E00E94530281E090E008955C
:1006D000089580E090E00895009769F0FC01019092
:1006E0000020E9F73197AF01481B590BBC018BE3A0
:1006F00091E00C94E60180E090E00895CF93DF93C1
:10070000EC0188819981009711F00E94560A1982A4
:1007100018821D821C821B821A82DF91CF9108955C
:100720000E94A50B0F931F93CF93DF93EC01888159
:100730009981009729F02A813B812617370788F491
:100740008B016F5F7F4F0E94DF0A009761F09983F2
:1007500088831B830A832C813D81232B11F4FC01A8
:10076000108281E001C080E0DF91CF911F910F9155
:100770000895EF92FF920F931F93CF93DF93EC01B5
:100780007B018A01BA010E949203811104C0CE014B
:100790000E947E0307C01D830C83B7018881998165
:1007A0000E94B30BCE01DF91CF911F910F91FF906B
:1007B000EF9008951F920F920FB60F9211242F936E
:1007C0003F938F939F93AF93BF9380913301909109
:1007D0003401A0913501B09136013091320123E00E
:1007E000230F2D3720F40196A11DB11D05C026E869
:1007F000230F0296A11DB11D209332018093330176
:1008000090933401A0933501B09336018091370164
:1008100090913801A0913901B0913A010196A11D42
:10082000B11D8093370190933801A0933901B093A3
:100830003A01BF91AF919F918F913F912F910F906E
:100840000FBE0F901F901895CF93DF93CDB7DEB7F3
:10085000AD970FB6F894DEBF0FBECDBF789484B5C8
:10086000826084BD84B5816084BD85B5826085BDAC
:1008700085B5816085BD80916E00816080936E003A
:10088000109281008091810082608093810080912C
:1008900081008160809381008091800081608093DD
:1008A00080008091B10084608093B1008091B0009D
:1008B00081608093B00080917A00846080937A0098
:1008C00080917A00826080937A0080917A008160C2
:1008D00080937A0080917A00806880937A001092E9
:1008E000C10082E00E94B4028AE097EDA3E2BCE37B
:1008F0008093260190932701A0932801B0932901AA
:1009000080EA96E8A1E0B0E080932A0190932B0161
:10091000A0932C01B0932D0180E197E290932F01D9
:1009200080932E01109231011092300180E00E94DC
:1009300070010E94AC0280E00E94510382E191E0CC
:100940000E946C0381E00E94510385E291E00E94C5
:100950006C0361E070E080E090E00E94AC0135E063
:10096000D32E40E0E42E40E0F42E809130010E942E
:10097000700180902E0190902F01092C000CAA0884
:10098000BB0897FF02C081509C4F892F990F990B8C
:1009900085958595D89EB001D99E700D1124072E9E
:1009A000000C880B990B0E941E082B013C018091C2
:1009B0002A0190912B01A0912C01B0912D01A5014C
:1009C0009401280F391F4A1F5B1FC501B4010E9403
:1009D0007709CA01B9010E941E089B01AC01C3013D
:1009E000B2010E9405094B015C012CEE31E548EB98
:1009F0005DE30E94170887FD09C08092260190924E
:100A00002701A0922801B092290108C01092260166
:100A10001092270110922801109229010E94AC0225
:100A200080E00E94510382E191E00E946C0381E02A
:100A30000E94510360912601709127018091280145
:100A4000909129011BA21AA21DA21CA21FA21EA2E4
:100A50008E010F5F1F4F22E044E00E94C505009702
:100A600071F0FC0101900020E9F73197AF01481BBC
:100A7000590BBC01CE0182960E94B90304C0CE017D
:100A800082960E947E0319A618A61BA61AA61DA66A
:100A90001CA649E050E06CE171E0CE0188960E940E
:100AA000B9031A8219821C821B821E821D8268A5CC
:100AB00079A56115710531F04CA55DA5CE010196B2
:100AC0000E94B9038EA19FA1AAA0BBA0A114B1044A
:100AD000C9F10097B1F00D811E81080F191FB801EF
:100AE000CE0101960E949203882361F129813A8107
:100AF0008D819E81B501820F931F0E94B30B1E83CF
:100B00000D834D815E8169817A818BE391E00E9442
:100B1000E60189819A810E94560A88A599A50E94BA
:100B2000560A8AA19BA10E94560A64EF71E080E0F8
:100B300090E00E94AC01E114F10409F416CF0E9488
:100B4000000013CFCE0101960E947E03DACFEBE3C3
:100B5000F1E0138212828AE091E09183808388E041
:100B600084838FEF858389E0868384E0878385E0B3
:100B7000808786E0818787E08287138614861586C2
:100B80001686178681E00C94B402EF920F931F93A0
:100B9000CF93DF93E80147FD02C034E001C034E1A8
:100BA000042E000C550B57FF03C051954195510978
:100BB000E32E022F242FAE010E94E505CE01DF9126
:100BC000CF911F910F91EF900895A9E0B0E0EBEE67
:100BD000F5E00C94D4086A01122FB02E2BE32017F5
:100BE00020F0FF24F394F00E02C02CE3F22E0F2D20
:100BF00027E0AE014F5F5F4F0E943F07BC01498174
:100C0000842F8970813031F0E1FC06C0E0FE06C01F
:100C100090E205C09DE203C09BE201C090E05E2D22
:100C2000507143FF3CC0911102C083E001C084E0D9
:100C3000811718F4212F281B01C020E051110BC08F
:100C4000F601822F30E2882319F031938150FBCFD7
:100C5000C20ED11C20E0992329F0D6019C93F60105
:100C600031966F01C6010396E2FE0AC03EE4D6014A
:100C70003C9341E411964C93119712963C9306C015
:100C80003EE6F601308341E641833283FC01322F98
:100C900040E2332309F442C041933150FACF42FF7E
:100CA00044C0911102C083E001C084E0811718F4B0
:100CB000212F281B01C020E051110BC0F601822F0B
:100CC00030E2882319F031938150FBCFC20ED11C42
:100CD00020E0992329F0D6019C93F60131966F010B
:100CE000C6010396E2FE0BC039E4D6013C933EE414
:100CF00011963C93119736E412963C9307C039E65F
:100D0000F60130833EE6318336E63283FC01322F32
:100D100040E2332319F041933150FBCFFC01E20F45
:100D2000F11D10828EEF9FEFA6C021E030E09111FF
:100D300002C020E030E0161617061CF4FB013196C5
:100D400002C0E1E0F0E02E0F3F1FBB2021F0EB2DB1
:100D5000F0E0319602C0E0E0F0E02E0F3F1FE12FFF
:100D6000F0E02E173F071CF4121B212F01C020E0DA
:100D70008E2D887159F4F601822F30E2882319F004
:100D800031938150FBCFC20ED11C20E0992329F072
:100D9000D6019C93F60131966F0151110BC0F601FB
:100DA000822F90E3882319F091938150FBCFC20EDC
:100DB000D11C20E00F2D060F9A81342F307144FF93
:100DC00003C0913309F40150101624F4093018F0CF
:100DD00008E001C001E0AB0177FF02C040E050E055
:100DE000FB01E41BF50BA1E0B0E0AC0FBD1FEA0F67
:100DF000FB1F8EE2A82E4B01801A91080B2D10E0EC
:100E00001195019511094F3FBFEF5B0721F4D60102
:100E1000AC9211966D01641775072CF08416950637
:100E200014F4818101C080E3415051093196D6010B
:100E300011967D014017510724F0D6018C9367016C
:100E4000E2CF6417750739F4963320F4953319F41B
:100E5000311101C081E3F6018083F701822F90E216
:100E6000882319F091938150FBCFF701E20FF11D18
:100E7000108280E090E02996ECE00C94F008283095
:100E800008F027E03327DA01990F311D87FD9160C3
:100E900000966105710539F432602E5F3D9330E3B1
:100EA0002A95E1F708959F3F30F08038710561057C
:100EB00009F03C5F3C5F3D93913008F08068911DE4
:100EC000DF93CF931F930F93FF92EF92192F987F89
:100ED0009695E92F96959695E90FFF27EE53FF4FCC
:100EE00099273327EE24FF24A701E70105900894F2
:100EF000079428F4360FE71EF81E491F511D660F90
:100F0000771F881F991F0694A1F70590079428F46E
:100F1000E70EF81E491F561FC11D770F881F991F26
:100F2000661F0694A1F70590079428F4F80E491F50
:100F3000561FC71FD11D880F991F661F771F069464
:100F4000A1F70590079420F4490F561FC71FD81F1B
:100F5000990F661F771F881F0694A9F78491109533
:100F6000177041F0D695C79557954795F794E79434
:100F70001A95C1F7E8E6F0E068941590159135915F
:100F80006591959105907FE27395E118F10A430B05
:100F9000560BC90BD009C0F7E10CF11E431F561FB9
:100FA000C91FD01D7EF4703311F48A95E6CFE89402
:100FB000015030F0080F0AF40027021708F4202F20
:100FC0002395022F7A3328F079E37D932A95E9F768
:100FD00010C07D932A9589F6069497956795379565
:100FE00017951794E118F10A430B560BC90BD0095A
:100FF00098F023957E9173957A3308F070E37C9393
:101000002013B8F77E9170617D9330F0839571E382
:101010007D9370E32A95E1F71124EF90FF900F91F3
:101020001F91CF91DF91992787FD909508950E9498
:10103000590808F481E00895E89409C097FB3EF44C
:1010400090958095709561957F4F8F4F9F4F992315
:10105000A9F0F92F96E9BB279395F6958795779593
:101060006795B795F111F8CFFAF4BB0F11F460FF53
:101070001BC06F5F7F4F8F4F9F4F16C0882311F0AB
:1010800096E911C0772321F09EE8872F762F05C0BF
:10109000662371F096E8862F70E060E02AF09A955A
:1010A000660F771F881FDAF7880F9695879597F94F
:1010B0000895990F0008550FAA0BE0E8FEEF1616E9
:1010C0001706E807F907C0F012161306E407F5073C
:1010D00098F0621B730B840B950B39F40A2661F0B0
:1010E000232B242B252B21F408950A2609F4A14053
:1010F000A6958FEF811D811D089597F99F6780E860
:1011000070E060E008959FEF80EC089500240A9459
:101110001616170618060906089500240A941216D2
:101120001306140605060895092E0394000C11F405
:10113000882352F0BB0F40F4BF2B11F460FF04C0B2
:101140006F5F7F4F8F4F9F4F089557FD9058440F0B
:10115000551F59F05F3F71F04795880F97FB991F16
:1011600061F09F3F79F087950895121613061406D3
:10117000551FF2CF4695F1DF08C016161706180660
:10118000991FF1CF86957105610508940895E8943B
:10119000BB2766277727CB0197F908952F923F92B7
:1011A0004F925F926F927F928F929F92AF92BF9277
:1011B000CF92DF92EF92FF920F931F93CF93DF9323
:1011C000CDB7DEB7CA1BDB0B0FB6F894DEBF0FBE80
:1011D000CDBF09942A88398848885F846E847D84CD
:1011E0008C849B84AA84B984C884DF80EE80FD80CF
:1011F0000C811B81AA81B981CE0FD11D0FB6F89445
:10120000DEBF0FBECDBFED0108950E9419090C94F9
:1012100094080E948D0858F00E94860840F029F436
:101220005F3F29F00C947D0851110C94C8080C9470
:1012300083080E94A50868F39923B1F3552391F31D
:10124000951B550BBB27AA2762177307840738F035
:101250009F5F5F4F220F331F441FAA1FA9F335D092
:101260000E2E3AF0E0E832D091505040E695001C46
:10127000CAF72BD0FE2F29D0660F771F881FBB1F00
:10128000261737074807AB07B0E809F0BB0B802DDE
:10129000BF01FF2793585F4F3AF09E3F510578F00A
:1012A0000C947D080C94C8085F3FE4F3983ED4F397
:1012B000869577956795B795F7959F5FC9F7880FDE
:1012C000911D9695879597F90895E1E0660F771F30
:1012D000881FBB1F621773078407BA0720F0621BC1
:1012E000730B840BBA0BEE1F88F7E0950895052E5B
:1012F00097FB1EF400940E948E0957FD07D00E94B0
:10130000960907FC03D04EF40C948E095095409535
:10131000309521953F4F4F4F5F4F089590958095A1
:10132000709561957F4F8F4F9F4F0895A1E21A2EC0
:10133000AA1BBB1BFD010DC0AA1FBB1FEE1FFF1F79
:10134000A217B307E407F50720F0A21BB30BE40BC9
:10135000F50B661F771F881F991F1A9469F7609510
:101360007095809590959B01AC01BD01CF010895CA
:10137000EE0FFF1F0590F491E02D09940F931F933A
:10138000CF93DF938230910510F482E090E0E091FA
:101390005501F091560120E030E0A0E0B0E0309738
:1013A00019F1408151810281138148175907C8F012
:1013B0008417950769F4109731F012960C931297E1
:1013C00013961C9327C0009355011093560122C019
:1013D0002115310519F04217530718F49A01BD0180
:1013E000EF01DF01F801DBCF21153105F9F0281BF2
:1013F000390B2430310580F48A819B816115710598
:1014000021F0FB019383828304C090935601809363
:101410005501FE01329644C0FE01E20FF31F819395
:10142000919322503109398328833AC02091530186
:1014300030915401232B41F420910201309103019A
:101440003093540120935301209100013091010108
:101450002115310541F42DB73EB74091040150915B
:101460000501241B350BE0915301F0915401E21763
:10147000F307A0F42E1B3F0B2817390778F0AC01B7
:101480004E5F5F4F2417350748F04E0F5F1F509394
:101490005401409353018193919302C0E0E0F0E046
:1014A000CF01DF91CF911F910F910895CF93DF93DB
:1014B000009709F481C0FC01329713821282A09137
:1014C0005501B0915601109781F420813181820F2E
:1014D000931F20915301309154012817390751F57A
:1014E000F0935401E093530167C0ED0120E030E038
:1014F000CE17DF0740F44A815B819E0141155105FB
:10150000F1F0EA01F5CFD383C28340815181840F8A
:10151000951FC817D90759F488819981840F951FA1
:101520000296918380838A819B8193838283211594
:10153000310529F4F0935601E09355013DC0E901CE
:10154000FB83EA8349915991C40FD51FEC17FD071E
:1015500061F480819181840F951F0296E90199833E
:101560008883828193819B838A83E0E0F0E01296F6
:101570008D919C911397009719F0FD01DC01F7CF35
:101580008D919C9111979D012E5F3F4F820F931F6C
:1015900020915301309154012817390769F430978D
:1015A00029F4109256011092550102C01382128242
:1015B000B0935401A0935301DF91CF910895A0E01F
:1015C000B0E0E5EEFAE00C94D208EC01009721F4CB
:1015D000CB010E94BE09B4C0FC01E60FF71F9C01BD
:1015E00022503109E217F30708F4A8C0D9010D9180
:1015F0001C91119706171707B0F00530110508F474
:101600009BC0C80104978617970708F495C002503D
:101610001109061B170B019311936D937C93CF0156
:101620000E94560A89C05B01A01AB10A4C01800EC3
:10163000911EA0915501B0915601612C712CE12CA5
:10164000F12C109709F446C08D919C911197A81523
:10165000B905B1F56C0142E0C40ED11CCA14DB041B
:1016600078F14C018A189B08640142E0C40ED11C39
:101670001296BC9012971396AC91B5E0CB16D1049C
:1016800040F0B282A38391828082D9016D937C93D2
:1016900009C00E5F1F4F800F911FF9019183808356
:1016A000EB2DFA2FE114F10431F0D7011396FC93DE
:1016B000EE93129741C0F0935601E09355013CC060
:1016C0006816790608F43C017D0112960D90BC91D4
:1016D000A02DB7CF8091530190915401881699069F
:1016E000E1F466167706C8F480910001909101013B
:1016F000009741F48DB79EB74091040150910501C8
:10170000841B950BE817F907C8F4F0935401E09394
:101710005301F901718360830FC0CB010E94BE09A0
:101720007C01009759F0A801BE010E94AA0BCE01CE
:101730000E94560AC70104C0CE0102C080E090E0BA
:10174000CDB7DEB7EEE00C94EE0881E090E0F894BF
:101750000C94BA0BFB01DC0102C001900D924150C8
:101760005040D8F70895FB01DC0101900D92002054
:08177000E1F70895F894FFCFA2
:10177800000057018000000000006203E6016903D1
:101788006803564F4C544D4554524500454E5452EB
:06179800454520563D000E
:00000001FF
