:100000000C9462000C948A000C948A000C948A0070
:100010000C948A000C948A000C948A000C948A0038
:100020000C948A000C948A000C948A000C94A10110
:100030000C948A000C948A000C948A000C948A0018
:100040000C9484050C948A000C9486030C948A000A
:100050000C948A000C948A000C948A000C948A00F8
:100060000C948A000C948A000000000024002700F1
:100070002A0000000000250028002B0000000000DE
:1000800023002600290004040404040404040202DA
:100090000202020203030303030301020408102007
:1000A0004080010204081020010204081020000012
:1000B0000007000201000003040600000000000029
:1000C00000003F0411241FBECFEFD4E0DEBFCDBF40
:1000D00011E0A0E0B1E0ECEAFEE002C005900D9274
:1000E000A437B107D9F712E0A4E7B1E001C01D922F
:1000F000AA34B107E1F710E0C4ECD0E004C02297C5
:10010000FE010E945007C23CD107C9F70E947F033D
:100110000C9454070C940000FB01DC0102C0019018
:100120000D9241505040D8F7089580939E01089554
:1001300020919401222329F080919F018F5F809369
:100140009F018091A0019091A101281759F090354D
:1001500010F08DE101C08BE0890F8093A101209305
:10016000A00103C09C5E9093A1019091A101903ADF
:1001700008F488C02091A2013091A30136952795FB
:100180003093A3012093A20180919F01853028F034
:1001900038603093A3012093A201905A9093A1015B
:1001A00010929F0180919D01882309F45BC080918A
:1001B000A4018F5F8093A4018C3008F463C0209168
:1001C000A2013091A301922F9F73AEE5B1E0FD0132
:1001D00040E08081981729F04F5F31964031C9F790
:1001E00040E086E0369527958A95E1F790E08C917E
:1001F000281729F09F5F11969031C9F790E0242FBE
:100200002295207F292B80917501882371F42093FA
:10021000A501822F84508B3140F010929D01809176
:10022000A6018F5F8093A601089580917501E82F44
:10023000F0E0EA58FE4F20838F5F80937501909124
:1002400075018091A501981750F010929D01809141
:10025000A7018F5F8093A70181E0809374011092C2
:10026000A40108958091A2019091A30188539B401D
:1002700049F481E080939D011092A40110927501D0
:1002800010927401089580919C01882329F481E0E3
:1002900080939C0110929D010895809174018823A0
:1002A000E1F308950F931F93382FFB0180917401A0
:1002B000882309F432C020917501235080812817CA
:1002C00008F42083408107E711E0832FB80150E054
:1002D0000E948C0010927401909175012FEF3FEFF6
:1002E000F801319713C081912827022E2295207F93
:1002F0002025032E322F22952F7002262695322795
:100300002327220F220F220F20259150992359F7DE
:1003100080E0285B304F09F481E01F910F91089530
:1003200080915D0160919E010E944E0680911801AE
:1003300060E00E944E061092950181E080939C013E
:1003400008951F920F920FB60F9211242F933F938F
:100350004F935F936F937F938F939F93AF93BF93CD
:10036000EF93FF93809117010E949B068093940165
:10037000809195018823D1F1809196018F5F8093C0
:100380009601815099F5E091970180919801E817C5
:1003900060F00E9490018091990190919A010196DC
:1003A00090939A018093990121C0809118019091B6
:1003B0009B0121E030E0092E02C0220F331F0A9476
:1003C000E2F7F0E0E75EFE4F608162239F5F90936B
:1003D0009B010E944E0680919B01863038F010925E
:1003E0009B01809197018F5F809397018091960187
:1003F000883010F01092960180919C01882311F0B2
:100400000E949800FF91EF91BF91AF919F918F91C2
:100410007F916F915F914F913F912F910F900FBE00
:100420000F901F9018951F931092970110929B01A7
:100430001092960110929C0160919E0111E061273B
:1004400080915D010E944E06109395011F910895C1
:10045000CF93DF93482F562F6C3110F080E0A1C06E
:10046000809195018823E1F7A52FAD5F6FEF7FEFB6
:100470006A27062E6295607F6025072E762F62958B
:100480006F700626669576276727660F660F660FDC
:100490006025B0E0FD0124E0F595E7952A95E1F7A8
:1004A000E25AFE4F808180932101AF70B070A25A52
:1004B000BE4F8C9180932201C3E2D1E0242F392FCB
:1004C000C901DC0125C0EC916E27062E6295607F84
:1004D0006025072E762F62956F7006266695762723
:1004E0006727660F660F660F6025F0E094E0F595CC
:1004F000E7959A95E1F7E25AFE4F80818883ED9166
:10050000F0E0EF70F070E25AFE4F8081898322960E
:100510008A2F841B8517B8F25F5F550F9B012095CA
:100520003095A52FB0E0AF5DBE4FF90184E0F695A0
:10053000E7958A95E1F7EF70F070E25AFE4F8081FF
:100540008C93A52FAF5F8A2F90E08F5D9E4FF901AE
:10055000EF70F070E25AFE4F4081FC014083AF5FC4
:100560008A2F90E08F5D9E4FF901EF2FFF27E295D4
:10057000EF70E25AFE4F4081FC014083AF5FB0E074
:10058000AF5DBE4F232F33272F703070225A3E4F5E
:10059000F90180818C93545F509398010E9413025B
:1005A00081E0DF91CF9108959C0140E050E060E848
:1005B00074E88EE190E00E94FD061092800089E0D0
:1005C000809381003093890020938800EFE6F0E06B
:1005D0008081826080838091180161E00E942E06F4
:1005E0008091170160E00E942E0680915D0161E01C
:1005F0000E942E0680915D0160919E010E944E0630
:100600000895EF92FF920F931F93DF93CF93CDB78F
:10061000DEB76F970FB6F894DEBF0FBECDBF8EE189
:1006200089830E944D0182E0E82EF12CEC0EFD1E24
:10063000C701BE016F5F7F4F0E9452018823B1F155
:100640008DE061E00E944E068CE292E060E071E095
:100650000E94760400E010E015C0F701E00FF11FE2
:10066000408150E060E070E08CE292E020E130E018
:100670000E946F058CE292E066E071E00E947604D1
:100680000F5F1F4F898190E00817190734F38CE240
:1006900092E068E071E00E94A50489E091E067E0E3
:1006A0000E9428028DE060E00E944E066F960FB611
:1006B000F894DEBF0FBECDBFCF91DF911F910F9198
:1006C000FF90EF9008950F931F930CE212E0C80182
:1006D00040E855E260E070E00E94C303C80161E1B8
:1006E00071E00E94A50481E00E94950080ED97E0F2
:1006F0000E94D4020E9443011F910F9108950E940D
:10070000F4050E9463030E940103FDCF1F920F9224
:100710000FB60F9211242F933F934F935F936F93D4
:100720007F938F939F93AF93BF93EF93FF934091EA
:10073000C600E0912802F0912902CF01019660E8FD
:1007400070E00E94EA069C0180912A0290912B029F
:100750002817390739F0E855FE4F408330932902B6
:1007600020932802FF91EF91BF91AF919F918F91BC
:100770007F916F915F914F913F912F910F900FBE9D
:100780000F901F901895AF92BF92CF92DF92EF9289
:10079000FF920F931F93CF93DF936C017A018B012C
:1007A000DC011496AD90BC901597CB01BA0122E004
:1007B00030E040E050E00E941F07205C3D4B404F7E
:1007C0005F4FCA01B901A80197010E941F07C90123
:1007D000DA010197A109B109292F3A2F4B2F55278B
:1007E00047FD5A950196A11DB11DE5012883E6013B
:1007F000EE81FF8181508083EA85FB85208141E085
:1008000050E0CA010E8402C0880F991F0A94E2F7D3
:10081000282B2083EA85FB852081CA010F8402C032
:10082000880F991F0A94E2F7282B2083EA85FB851D
:100830008081088802C0440F551F0A94E2F7842B78
:100840008083DF91CF911F910F91FF90EF90DF9008
:10085000CF90BF90AF900895FC01A085B18521890C
:100860008C9190E0022E02C0959587950A94E2F74C
:1008700080FFF6CF0484F585E02D6083089582E73C
:1008800091E090932D0280932C0288EA91E090935E
:100890002F0280932E0285EC90E09093310280939A
:1008A000300284EC90E0909333028093320280EC2B
:1008B00090E0909335028093340281EC90E0909325
:1008C00037028093360286EC90E090933902809351
:1008D000380284E080933A0283E080933B0287E011
:1008E00080933C0285E080933D0208950F931F930F
:1008F000CF93DF938C01EB0109C02196D801ED91D4
:10090000FC910190F081E02DC80109956881662372
:10091000A1F7DF91CF911F910F9108950F931F932E
:100920008C01DC01ED91FC910190F081E02D6DE0F6
:100930000995D801ED91FC910190F081E02DC8015D
:100940006AE009951F910F9108950F931F938C01F1
:100950000E947604C8010E948E041F910F91089591
:100960002F923F924F925F926F927F928F929F92BF
:10097000AF92BF92CF92DF92EF92FF920F931F93AD
:10098000DF93CF93CDB7DEB7A0970FB6F894DEBF55
:100990000FBECDBF1C016A017B01411551056105E8
:1009A000710549F4DC01ED91FC910190F081E02D9D
:1009B00060E3099554C0882499245401422E55249B
:1009C0006624772401E010E00C0F1D1F080D191D8F
:1009D000C701B601A30192010E94FD06F8016083E0
:1009E0000894811C911CA11CB11CC701B601A30174
:1009F00092010E94FD06C901DA016C017D01C1145A
:100A0000D104E104F104F1F681E0E82EF12CEC0EC2
:100A1000FD1EE80CF91C3E010894611C711CD501F7
:100A2000C4010197A109B1096C01C818D90814C003
:100A3000F601EE0DFF1D60816A3010F4605D01C0AB
:100A4000695CD101ED91FC910190F081E02DC10133
:100A500009950894E108F1086E147F0449F7A096FF
:100A60000FB6F894DEBF0FBECDBFCF91DF911F91BF
:100A70000F91FF90EF90DF90CF90BF90AF909F903D
:100A80008F907F906F905F904F903F902F90089540
:100A9000EF92FF920F931F93CF93DF93EC017A01B4
:100AA0008B0177FF0FC0E881F9810190F081E02D83
:100AB0006DE2099510950095F094E094E11CF11C0D
:100AC000011D111DCE01B801A7012AE00E94B0044A
:100AD000DF91CF911F910F91FF90EF900895DC016E
:100AE0002115310541F4ED91FC910190F081E02D4B
:100AF000642F099508952A30310519F40E9448059C
:100B000008950E94B00408951F920F920FB60F929D
:100B100011242F938F939F93AF93BF9380913E02A5
:100B200090913F02A0914002B09141020196A11D17
:100B3000B11D80933E0290933F02A0934002B09378
:100B400041028091420290914302A0914402B091EF
:100B500045028050904CAF4FBF4F8093420290931C
:100B60004302A0934402B093450227C08091420201
:100B700090914302A0914402B091450280589E4357
:100B8000A040B0408093420290934302A09344025D
:100B9000B09345028091460290914702A09148028D
:100BA000B09149020196A11DB11D80934602909318
:100BB0004702A0934802B09349028091420290916B
:100BC0004302A0914402B091450281589E43A04047
:100BD000B04060F6BF91AF919F918F912F910F9090
:100BE0000FBE0F901F901895789484B5826084BDD5
:100BF00084B5816084BD85B5826085BD85B5816021
:100C000085BDEEE6F0E0808181608083E1E8F0E080
:100C1000808182608083808181608083E0E8F0E071
:100C2000808181608083E1EBF0E08081846080835B
:100C3000E0EBF0E0808181608083EAE7F0E0808192
:100C400084608083808182608083808181608083F2
:100C50008081806880831092C1000895282F30E041
:100C6000C90186569F4FFC0194912A573F4FF901C5
:100C70008491882391F0E82FF0E0EE0FFF1FE859F0
:100C8000FF4FA591B491662329F48C919095892307
:100C90008C9308958C91892B8C930895482F50E064
:100CA000CA0182559F4FFC012491CA0186569F4F6D
:100CB000FC0194914A575F4FFA0134913323D1F1EB
:100CC000222331F1233021F4809180008F7705C0F9
:100CD000243031F4809180008F7D8093800018C093
:100CE000213019F484B58F7704C0223021F484B503
:100CF0008F7D84BD0DC0263021F48091B0008F77A8
:100D000005C0273029F48091B0008F7D8093B0001A
:100D1000E32FF0E0EE0FFF1FEE58FF4FA591B491C7
:100D2000662329F48C91909589238C9308958C9156
:100D3000892B8C930895682F70E0CB0182559F4FCB
:100D4000FC012491CB0186569F4FFC0144916A57C8
:100D50007F4FFB019491992319F420E030E038C0D3
:100D6000222331F1233021F4809180008F7705C058
:100D7000243031F4809180008F7D8093800018C0F2
:100D8000213019F484B58F7704C0223021F484B562
:100D90008F7D84BD0DC0263021F48091B0008F7707
:100DA00005C0273029F48091B0008F7D8093B0007A
:100DB000892F90E0880F991F84589F4FFC01A591BF
:100DC000B4918C9120E030E0842311F021E030E0F8
:100DD000C901089597FB092E07260AD077FD04D094
:100DE00049D006D000201AF4709561957F4F089580
:100DF000F6F7909581959F4F0895A1E21A2EAA1BB0
:100E0000BB1BFD010DC0AA1FBB1FEE1FFF1FA217BA
:100E1000B307E407F50720F0A21BB30BE40BF50BB7
:100E2000661F771F881F991F1A9469F76095709540
:100E3000809590959B01AC01BD01CF01089597FB72
:100E4000092E05260ED057FD04D0D7DF0AD0001C8E
:100E500038F450954095309521953F4F4F4F5F4F57
:100E60000895F6F790958095709561957F4F8F4F17
:100E70009F4F0895AA1BBB1B51E107C0AA1FBB1FB0
:100E8000A617B70710F0A61BB70B881F991F5A9516
:100E9000A9F780959095BC01CD010895EE0FFF1F35
:0C0EA0000590F491E02D0994F894FFCF28
:100EAC00476F743A2000200000676F6F64627965A9
:100EBC00007365747570000B0C2A2A2A2A2A2A38AA
:100ECC002C000000000000000000000000000000EA
:100EDC000000000000000000000000000000000006
:100EEC0000000000000000000000000000000000F6
:100EFC00000000000000000000000000000A0D0EC1
:100F0C00131516191A1C232526292A2C32340000F5
:040F1C0000002C04A1
:00000001FF
