:100000000C9462000C948A000C948A000C948A0070
:100010000C948A000C948A000C948A000C948A0038
:100020000C948A000C948A000C948A000C949C0115
:100030000C948A000C948A000C948A000C948A0018
:100040000C94C5030C948A000C949B020C948A00B7
:100050000C948A000C948A000C948A000C948A00F8
:100060000C948A000C948A000000000024002700F1
:100070002A0000000000250028002B0000000000DE
:1000800023002600290004040404040404040202DA
:100090000202020203030303030301020408102007
:1000A0004080010204081020010204081020000012
:1000B0000007000201000003040600000000000029
:1000C0000000540311241FBECFEFD4E0DEBFCDBF2C
:1000D00011E0A0E0B1E0EEE2FBE002C005900D927D
:1000E000AA36B107D9F712E0AAE6B1E001C01D9225
:1000F000A034B107E1F710E0C4ECD0E004C02297CF
:10010000FE010E949105C23CD107C9F70E949402EA
:100110000C9495050C940000FB01DC0102C00190D9
:100120000D9241505040D8F708958093940108955E
:1001300020918A01222329F0809195018F5F80937D
:1001400095018091960190919701281759F090356B
:1001500010F08DE101C08BE0890F8093970120930F
:10016000960103C09C5E9093970190919701903AFD
:1001700008F488C02091980130919901369527950F
:10018000309399012093980180919501853028F052
:1001900038603093990120939801905A9093970179
:1001A0001092950180919301882309F45BC080919E
:1001B0009A018F5F80939A018C3008F463C020917C
:1001C000980130919901922F9F73A4E5B1E0FD0150
:1001D00040E08081981729F04F5F31964031C9F790
:1001E00040E086E0369527958A95E1F790E08C917E
:1001F000281729F09F5F11969031C9F790E0242FBE
:100200002295207F292B80916B01882371F4209304
:100210009B01822F84508B3140F01092930180918A
:100220009C018F5F80939C01089580916B01E82F62
:10023000F0E0E459FE4F20838F5F80936B01909133
:100240006B0180919B01981750F01092930180915F
:100250009D018F5F80939D0181E080936A011092E0
:100260009A010895809198019091990188539B403B
:1002700049F481E08093930110929A0110926B01EE
:1002800010926A01089580919201882329F481E0F7
:10029000809392011092930108950F931F93382F2A
:1002A000FB0180916A01882309F432C020916B011F
:1002B00023508081281708F4208340810DE611E047
:1002C000832FB80150E00E948C0010926A01909137
:1002D0006B012FEF3FEFF801319713C08191282771
:1002E000022E2295207F2025032E322F22952F705B
:1002F0000226269532272327220F220F220F2025A0
:100300009150992359F780E0285B304F09F481E040
:100310001F910F91089580915301609194010E9463
:100320008F0480910E0160E00E948F0410928B0177
:1003300081E08093920108951F920F920FB60F9261
:1003400011242F933F934F935F936F937F938F93DA
:100350009F93AF93BF93EF93FF9380910D010E9402
:10036000DC0480938A0180918B018823D1F18091F4
:100370008C018F5F80938C01815099F5E0918D0104
:1003800080918E01E81760F00E948B0180918F01AF
:100390009091900101969093900180938F0121C0DC
:1003A00080910E019091910121E030E0092E02C070
:1003B000220F331F0A94E2F7F0E0E15FFE4F608105
:1003C00062239F5F909391010E948F04809191011D
:1003D000863038F01092910180918D018F5F80936B
:1003E0008D0180918C01883010F010928C018091E9
:1003F0009201882311F00E949800FF91EF91BF9124
:10040000AF919F918F917F916F915F914F913F91AC
:100410002F910F900FBE0F901F9018959C0140E0F8
:1004200050E060E874E88EE190E00E943E05109292
:10043000800089E0809381003093890020938800B8
:10044000EFE6F0E080818260808380910E0161E0C0
:100450000E946F0480910D0160E00E946F04809102
:10046000530161E00E946F048091530160919401F7
:100470000E948F0408950F931F93DF93CF93CDB7FE
:10048000DEB76F970FB6F894DEBF0FBECDBF8EE11B
:1004900089838E010E5F1F4FC801BE016F5F7F4FC2
:1004A0000E944D018823C9F08DE061E00E948F0415
:1004B00082E292E060E071E00E948B0382E292E0CF
:1004C000B8010E94BA0382E292E066E071E00E9405
:1004D000BA038DE060E00E948F046F960FB6F89427
:1004E000DEBF0FBECDBFCF91DF911F910F91089559
:1004F0000F931F9302E212E0C80140E855E260E06A
:1005000070E00E94D802C80167E071E00E94BA035F
:1005100081E00E94950080ED97E00E940E020E940B
:1005200043011F910F9108950E9435040E947802A3
:100530000E943B02FDCF1F920F920FB60F92112423
:100540002F933F934F935F936F937F938F939F93DB
:10055000AF93BF93EF93FF934091C600E0911E02CB
:10056000F0911F02CF01019660E870E00E942B0518
:100570009C0180912002909121022817390739F0BF
:10058000E256FE4F408330931F0220931E02FF91DC
:10059000EF91BF91AF919F918F917F916F915F91FB
:1005A0004F913F912F910F900FBE0F901F90189574
:1005B000AF92BF92CF92DF92EF92FF920F931F9371
:1005C000CF93DF936C017A018B01DC011496AD901F
:1005D000BC901597CB01BA0122E030E040E050E03A
:1005E0000E946005205C3D4B404F5F4FCA01B9013E
:1005F000A80197010E946005C901DA010197A109CC
:10060000B109292F3A2F4B2F552747FD5A950196AF
:10061000A11DB11DE5012883E601EE81FF81815016
:100620008083EA85FB85208141E050E0CA010E8489
:1006300002C0880F991F0A94E2F7282B2083EA85CD
:10064000FB852081CA010F8402C0880F991F0A947C
:10065000E2F7282B2083EA85FB858081088802C089
:10066000440F551F0A94E2F7842B8083DF91CF91CA
:100670001F910F91FF90EF90DF90CF90BF90AF90C0
:100680000895FC01A085B18521898C9190E0022E0E
:1006900002C0959587950A94E2F780FFF6CF04840F
:1006A000F585E02D6083089588E691E0909323021C
:1006B000809322028EE991E0909325028093240298
:1006C00085EC90E0909327028093260284EC90E0E2
:1006D000909329028093280280EC90E090932B0263
:1006E00080932A0281EC90E090932D0280932C025B
:1006F00086EC90E090932F0280932E0284E080930A
:10070000300283E08093310287E08093320285E0FB
:100710008093330208950F931F93CF93DF938C013F
:10072000EB0109C02196D801ED91FC910190F08177
:10073000E02DC801099568816623A1F7DF91CF916B
:100740001F910F9108950F931F938C01DC01ED9180
:10075000FC910190F081E02D6DE00995D801ED91BB
:10076000FC910190F081E02DC8016AE009951F918C
:100770000F9108950F931F938C010E948B03C80162
:100780000E94A3031F910F9108951F920F920FB61D
:100790000F9211242F938F939F93AF93BF938091C8
:1007A000340290913502A0913602B0913702019641
:1007B000A11DB11D8093340290933502A09336029F
:1007C000B09337028091380290913902A0913A0299
:1007D000B0913B028050904CAF4FBF4F8093380296
:1007E00090933902A0933A02B0933B0227C08091C4
:1007F000380290913902A0913A02B0913B028058A0
:100800009E43A040B0408093380290933902A09359
:100810003A02B0933B0280913C0290913D02A0913C
:100820003E02B0913F020196A11DB11D80933C0292
:1008300090933D02A0933E02B0933F028091380214
:1008400090913902A0913A02B0913B0281589E43A7
:10085000A040B04060F6BF91AF919F918F912F91D2
:100860000F900FBE0F901F901895789484B58260FA
:1008700084BD84B5816084BD85B5826085BD85B544
:10088000816085BDEEE6F0E0808181608083E1E8F3
:10089000F0E0808182608083808181608083E0E8F5
:1008A000F0E0808181608083E1EBF0E08081846012
:1008B0008083E0EBF0E0808181608083EAE7F0E014
:1008C0008081846080838081826080838081816078
:1008D00080838081806880831092C1000895282FD2
:1008E00030E0C90186569F4FFC0194912A573F4F33
:1008F000F9018491882391F0E82FF0E0EE0FFF1FBB
:10090000E859FF4FA591B491662329F48C919095F5
:1009100089238C9308958C91892B8C930895482F6B
:1009200050E0CA0182559F4FFC012491CA018656AE
:100930009F4FFC0194914A575F4FFA013491332342
:10094000D1F1222331F1233021F4809180008F777F
:1009500005C0243031F4809180008F7D8093800029
:1009600018C0213019F484B58F7704C0223021F4E7
:1009700084B58F7D84BD0DC0263021F48091B000F8
:100980008F7705C0273029F48091B0008F7D809348
:10099000B000E32FF0E0EE0FFF1FEE58FF4FA591E0
:1009A000B491662329F48C91909589238C930895B2
:1009B0008C91892B8C930895682F70E0CB01825520
:1009C0009F4FFC012491CB0186569F4FFC0144911F
:1009D0006A577F4FFB019491992319F420E030E08E
:1009E00038C0222331F1233021F4809180008F77A9
:1009F00005C0243031F4809180008F7D8093800089
:100A000018C0213019F484B58F7704C0223021F446
:100A100084B58F7D84BD0DC0263021F48091B00057
:100A20008F7705C0273029F48091B0008F7D8093A7
:100A3000B000892F90E0880F991F84589F4FFC01C8
:100A4000A591B4918C9120E030E0842311F021E055
:100A500030E0C901089597FB092E07260AD077FDDB
:100A600004D049D006D000201AF4709561957F4FCC
:100A70000895F6F7909581959F4F0895A1E21A2E5B
:100A8000AA1BBB1BFD010DC0AA1FBB1FEE1FFF1F32
:100A9000A217B307E407F50720F0A21BB30BE40B82
:100AA000F50B661F771F881F991F1A9469F76095C9
:100AB0007095809590959B01AC01BD01CF01089583
:100AC00097FB092E05260ED057FD04D0D7DF0AD09C
:100AD000001C38F450954095309521953F4F4F4F6D
:100AE0005F4F0895F6F790958095709561957F4FCB
:100AF0008F4F9F4F0895AA1BBB1B51E107C0AA1F30
:100B0000BB1FA617B70710F0A61BB70B881F991FAE
:100B10005A95A9F780959095BC01CD010895EE0FE7
:0E0B2000FF1F0590F491E02D0994F894FFCF8B
:100B2E00476F743A2000007365747570000B0C2AC1
:100B3E002A2A2A2A2A382C00000000000000000071
:100B4E000000000000000000000000000000000097
:100B5E000000000000000000000000000000000087
:100B6E000000000000000000000000000000000077
:100B7E000000000A0D0E131516191A1C232526291E
:0A0B8E002A2C32340000000041035D
:00000001FF
